:020000040800F2
:100000000000082079100008450F00084B0F000879
:10001000510F0008570F00085D0F00080000000096
:10002000000000000000000000000000630F000856
:10003000710F0008000000007F0F00088D0F0008FE
:10004000C9100008C9100008C9100008C91000082C
:10005000C9100008C9100008C9100008C91000081C
:10006000C9100008C9100008C9100008C91000080C
:10007000C9100008C9100008C9100008C9100008FC
:10008000C9100008990F0008AD0F0008C91000083A
:10009000C9100008C9100008C9100008C9100008DC
:1000A000C9100008C9100008C9100008C9100008CC
:1000B000C9100008C9100008C9100008C9100008BC
:1000C000C9100008C9100008C9100008C9100008AC
:1000D000C9100008C9100008C10F0008C9100008A5
:1000E000C9100008C9100008C9100008C91000088C
:1000F000C9100008C9100008C9100008C91000087C
:10010000C9100008C9100008C9100008C91000086B
:10011000C9100008C9100008C9100008C91000085B
:10012000C9100008C9100008C9100008C91000084B
:10013000C9100008C9100008C9100008C91000083B
:10014000C9100008C9100008C9100008C91000082B
:10015000C9100008C9100008C9100008D50F000810
:10016000C9100008C9100008C9100008C91000080B
:10017000C9100008C9100008C910000800000000DC
:10018000C9100008C9100008C9100008C9100008EB
:10019000C9100008C9100008C9100008C9100008DB
:1001A000C9100008C9100008C9100008C9100008CB
:1001B000C9100008C9100008C9100008C9100008BB
:1001C000C9100008C910000800000000C91000088C
:1001D000C9100008C9100008C9100008C91000089B
:1001E000C9100008C9100008C9100008C91000088B
:0801F000C9100008C910000845
:1002000010B5054C237833B9044B13B10448AFF350
:1002100000800123237010BD840000200000000036
:100220002056000808B5034B1BB103490348AFF340
:10023000008008BD00000000880000202056000853
:1002400001F0FF01102A2BDB10F0070F08D010F887
:10025000013B013A8B422DD010F0070F42B3F6D18B
:10026000F0B441EA012141EA014122F007047FF0A4
:1002700000070023F0E80256083C85EA010586EAFB
:10028000010685FA47F5A3FA87F586FA47F6A5FA37
:1002900087F68EB9EED1F0BC01F0FF0102F0070243
:1002A00032B110F8013B013A83EA010313B1F8D1EE
:1002B0000020704701387047002D06BF35460338CF
:1002C000073815F0010F07D1013015F4807F02BF08
:1002D000013015F4C03F0130F0BC0138704700BF59
:1002E00053B94AB9002908BF00281CBF4FF0FF319D
:1002F0004FF0FF3000F06EB9ADF1080C6DE904CE9F
:1003000000F006F8DDF804E0DDE9022304B07047F0
:100310002DE9F047089D04468C46002B40F0838071
:100320008A42174647D9B2FA82F242B1C2F120009E
:1003300024FA00F09140974040EA010C94404FEAC3
:100340001748230CBCFBF8F61FFA87FE08FB16C102
:1003500043EA014306FB0EF1994209D9FB1806F165
:10036000FF3080F01981994240F21681023E3B44F1
:100370005B1AA4B2B3FBF8F008FB103344EA034461
:1003800000FB0EFEA64509D93C1900F1FF3380F0B1
:100390000581A64540F2028102383C4440EA06400D
:1003A000A4EB0E0400261DB1D4400023C5E9004390
:1003B0003146BDE8F08702B9FFDEB2FA82F2002AC8
:1003C00050D1CB1B4FEA174E1FFA87F80126B3FB1B
:1003D000FEFC210C0EFB1C3341EA034108FB0CF32D
:1003E0008B4207D979180CF1FF3002D28B4200F210
:1003F000E9808446C91AA3B2B1FBFEF00EFB1011CE
:1004000043EA014408FB00F8A04507D93C1900F174
:10041000FF3302D2A04500F2D9801846A4EB0804AD
:1004200040EA0C40BFE78B4209D9002D00F0B180B3
:100430000026C5E9000130463146BDE8F087B3FA31
:1004400083F6002E4AD18B4202D3824200F2B8805A
:10045000841A61EB030101208C46002DA8D0C5E968
:10046000004CA5E7C2F1200320FA03F6974001FAF9
:1004700002F04FEA174ED9403043030CB1FBFEF6B1
:100480001FFA87F80EFB161143EA014306FB08F139
:10049000994204FA02F409D9FB1806F1FF3C80F0F6
:1004A0008D80994240F28A80023E3B445B1A81B2C1
:1004B000B3FBFEF00EFB103341EA034100FB08F3EF
:1004C0008B4207D9791800F1FF3C73D28B4271D966
:1004D00002383944CB1A40EA064678E7C6F1200CC8
:1004E00003FA06F422FA0CF31C4320FA0CF701FA83
:1004F00006F34FEA144E21FA0CF11F433B0CB1FBFB
:10050000FEF91FFA84F80EFB191143EA014109FBB9
:1005100008FA8A4502FA06F200FA06F308D96118C9
:1005200009F1FF3048D28A4546D9A9F10209214490
:10053000A1EB0A01BFB2B1FBFEF00EFB101147EABE
:10054000014700FB08F8B84507D9E71900F1FF316A
:100550002ED2B8452CD90238274440EA0940A7EBEF
:100560000807A0FB02894F45C64649461AD317D053
:100570005DB1B3EB0E0267EB010707FA0CFCF2402A
:100580004CEA0202F740C5E9002700263146BDE8E3
:10059000F0872E4628460BE70646E9E61846FDE6B4
:1005A0004345E5D2B8EB020E69EB04010138DFE701
:1005B0000846D2E760468DE78146B9E7664675E7AB
:1005C00030464AE7ACF1020C394413E702383C44A8
:1005D00024E700BF704700BF80B5B6B000AF3B4A0C
:1005E00007F118031146BA22184604F0E3FB002372
:1005F00087F8D33000237B6007F1080300221A60DC
:100600005A609A60DA60324A3B4612681146198095
:100610000233120C1A7000F058FD00F065F800F07B
:100620000DFA00F08DF900F0D1F800F0E9F900F0D2
:1006300057F900F0B5F942F2107314222549264803
:1006400003F0F8F94FF47A7000F09CFD002387F86E
:10065000D7300023A7F8D43009E0B7F8D4301F4AC8
:100660007821D154B7F8D4300133A7F8D430B7F893
:10067000D43040F2CD729342EFD9184B0D2283F85B
:10068000CE27164B0A2283F8CF27642000F07AFD8C
:100690004FF4FA621149124803F060FA4FF4FA700D
:1006A00000F070FD97F8D730013387F8D73097F80E
:1006B000D7203B1D0B49184604F092FB391D4FF41F
:1006C0007A730422044803F0B5F9E1E740560008C4
:1006D000FC56000800000020B00000207C01002033
:1006E000001200203856000880B594B000AF07F122
:1006F0001C0334220021184604F06AFB07F10803AA
:1007000000221A605A609A60DA601A6102F00CF8EE
:100710002C4B1B6C2B4A43F080531364294B1B6CEE
:1007200003F080537B607B68274B1B6823F44043B6
:10073000254A43F480431360234B1B6803F4404372
:100740003B603B680123FB614FF4A0233B62022323
:100750007B634FF48003BB630423FB6360233B6430
:1007600002237B640423BB640223FB6407F11C03A4
:10077000184602F039F80346002B01D000F044FA85
:1007800001F0E2FF0346002B01D000F03DFA0F23F9
:10079000BB600223FB6000233B614FF480537B610D
:1007A0004FF48053BB6107F108030321184602F0A0
:1007B000C9FA0346002B01D000F026FA00BF5037DB
:1007C000BD4680BD003802400070004080B584B056
:1007D00000AF3B4600221A605A609A60DA603D4BD7
:1007E0003D4A1A603B4B00225A603A4B00229A6005
:1007F000384B01221A61374B01229A61354B002296
:1008000083F82020334B0022DA62324B334A9A625B
:10081000304B0022DA602F4B0522DA612D4B00228B
:1008200083F830202B4B00225A612A4800F0CEFC7E
:100830000346002B01D000F0E7F903233B600123BE
:100840007B600723BB603B461946224800F030FE20
:100850000346002B01D000F0D7F902237B6003236D
:10086000BB603B4619461B4800F022FE0346002BA6
:1008700001D000F0C9F903237B600423BB603B4631
:100880001946144800F014FE0346002B01D000F076
:10089000BBF904237B600523BB603B4619460D482A
:1008A00000F006FE0346002B01D000F0ADF9052351
:1008B0007B600623BB603B461946064800F0F8FD06
:1008C0000346002B01D000F09FF900BF1037BD4652
:1008D00080BD00BF34010020002001400100000F56
:1008E00080B500AF144B154A1A60134B4FF4E13238
:1008F0005A60114B00229A600F4B0022DA600E4BB7
:1009000000221A610C4B0C225A610B4B00229A6197
:10091000094B0022DA61084B00221A62064B0022C2
:100920005A62054803F038F80346002B01D000F066
:100930006BF900BF80BD00BF0012002000440040E2
:1009400080B500AF144B154A1A60134B4FF4E132D7
:100950005A60114B00229A600F4B0022DA600E4B56
:1009600000221A610C4B0C225A610B4B00229A6137
:10097000094B0022DA61084B00221A62064B002262
:100980005A62054803F008F80346002B01D000F036
:100990003BF900BF80BD00BFB00000200048004010
:1009A00080B500AF144B154A1A60134B4FF4E13277
:1009B0005A60114B00229A600F4B0022DA600E4BF6
:1009C00000221A610C4B0C225A610B4B00229A61D7
:1009D000094B0022DA61084B00221A62064B002202
:1009E0005A62054802F0D8FF0346002B01D000F000
:1009F0000BF900BF80BD00BF7C1100200014014036
:100A000080B582B000AF0C4B1B6B0B4A43F4001354
:100A10001363094B1B6B03F400137B607B6800229C
:100A20000021112001F079F8112001F092F800BFA7
:100A30000837BD4680BD00BF0038024080B58CB08D
:100A400000AF07F11C0300221A605A609A60DA6056
:100A50001A61374B1B6B364A43F004031363344B64
:100A60001B6B03F00403BB61BB69314B1B6B304A4A
:100A700043F0800313632E4B1B6B03F080037B61F9
:100A80007B692B4B1B6B2A4A43F001031363284BF2
:100A90001B6B03F001033B613B69254B1B6B244A35
:100AA00043F002031363224B1B6B03F00203FB6052
:100AB000FB681F4B1B6B1E4A43F0080313631C4B60
:100AC0001B6B03F00803BB60BB68194B1B6B184A18
:100AD00043F040031363164B1B6B03F040037B6032
:100AE0007B68002244F28101124801F003FE4FF4BA
:100AF0000053FB614FF488133B6200237B6207F1D4
:100B00001C0319460C4801F049FC44F28103FB61C7
:100B100001233B6200237B620023BB6207F11C03BD
:100B20001946044801F03AFC00BF3037BD4680BD8D
:100B300000380240000402400008024080B485B042
:100B400000AF78600023FB81194B1B78DBB2002BD0
:100B50000CBF01230023DBB21A46154B1A704FF469
:100B60007A73FB8110E0124B1B78DBB2002B04D0B0
:100B7000FB89104A7821D15403E0FB890D4A792181
:100B8000D154FB890133FB81FB8940F2CD72934242
:100B9000E9D9084B0D2283F8CE27064B0A2283F8A9
:100BA000CF2700BF1437BD465DF8047B704700BFF8
:100BB000A00000207C01002080B485B000AF7860E8
:100BC0000023FB8110E00E4B1B78DBB2002B04D01E
:100BD000FB890C4A7A21D15403E0FB89094A772129
:100BE000D154FB890133FB81FB89B3F57A7FEAD3CA
:100BF00000BF00BF1437BD465DF8047B704700BFDF
:100C0000A00000207C01002080B400AF72B600BFBD
:100C1000FEE7000080B483B000AF0F4B1B6C0E4AA0
:100C200043F0805313640C4B1B6C03F080537B60C8
:100C30007B68094B5B6C084A43F480435364064B62
:100C40005B6C03F480433B603B6800BF0C37BD46E0
:100C50005DF8047B704700BF0038024080B58AB061
:100C600000AF786007F1140300221A605A609A609E
:100C7000DA601A617B681B68194A93422BD1194BC1
:100C80005B6C184A43F480735364164B5B6C03F43B
:100C900080733B613B69134B1B6B124A43F00103AA
:100CA0001363104B1B6B03F00103FB60FB6808230D
:100CB0007B610323BB610023FB6107F11403194629
:100CC000094801F06BFB00220021122000F025FFF3
:100CD000122000F03EFF00BF2837BD4680BD00BF98
:100CE00000200140003802400000024080B5B2B050
:100CF00000AF786007F1B40300221A605A609A606E
:100D0000DA601A6107F1240390220021184604F0EA
:100D10005FF87B681B68834A934271D180237B62B2
:100D20000023FB6607F12403184602F00DFA034680
:100D3000002B01D0FFF768FF7B4B1B6C7A4A43F412
:100D400000331364784B1B6C03F400333B623B6A43
:100D5000754B1B6B744A43F008031363724B1B6B98
:100D600003F00803FB61FB696023C7F8B43002237A
:100D7000C7F8B8300023C7F8BC300323C7F8C03029
:100D80000723C7F8C43007F1B4031946674801F0D8
:100D900005FB674B674A1A60654B4FF000625A606B
:100DA000634B40229A60624B0022DA60604B4FF442
:100DB00080621A615E4B00225A615D4B00229A618B
:100DC0005B4B0022DA615A4B00221A62584B002218
:100DD0005A62574800F0D8FE0346002B01D0FFF7B7
:100DE00013FF7B68524ADA66514A7B68936300229C
:100DF0000021262000F091FE262000F0AAFE8CE0C3
:100E00007B681B684C4A93423DD14FF480737B62F0
:100E100000233B6707F12403184602F095F90346C7
:100E2000002B01D0FFF7F0FE3F4B1B6C3E4A43F412
:100E3000802313643C4B1B6C03F48023BB61BB69B0
:100E4000394B1B6B384A43F008031363364B1B6B5B
:100E500003F008037B617B694FF44073C7F8B4303B
:100E60000223C7F8B8300023C7F8BC300323C7F803
:100E7000C0300723C7F8C43007F1B40319462B4824
:100E800001F08CFA49E07B681B682C4A934244D1FC
:100E90004FF400637B620023FB6707F124031846CD
:100EA00002F052F90346002B01D0FFF7ADFE1E4BB6
:100EB0005B6C1D4A43F0200353641B4B5B6C03F0D7
:100EC00020033B613B69184B1B6B174A43F04003FF
:100ED0001363154B1B6B03F04003FB60FB684FF47F
:100EE0008443C7F8B4300223C7F8B8300023C7F8EA
:100EF000BC300323C7F8C0300823C7F8C43007F15B
:100F0000B40319460E4801F049FA00220021472097
:100F100000F003FE472000F01CFE00BFC837BD46AE
:100F200080BD00BF0044004000380240000C024079
:100F30004C090020A060024000480040001401401D
:100F40000018024080B400AFFEE780B400AFFEE7B7
:100F500080B400AFFEE780B400AFFEE780B400AF1E
:100F6000FEE780B400AF00BFBD465DF8047B70476C
:100F700080B400AF00BFBD465DF8047B704780B40D
:100F800000AF00BFBD465DF8047B704780B500AF81
:100F900000F0D8F800BF80BD80B500AF024800F077
:100FA00093FF00BF80BD00BF4C09002080B500AF9B
:100FB000024800F04FF900BF80BD00BF340100209F
:100FC00080B500AF024802F059FE00BF80BD00BFEF
:100FD0000012002080B500AF024802F04FFE00BFB3
:100FE00080BD00BF7C11002080B586B000AF786066
:100FF000144A154BD31A7B617B693B61134B1B6809
:10100000002B02D1114B124A1A60104B1A687B68F0
:1010100013443A699A4207D203F0A2FE03460C2217
:101020001A604FF0FF3309E0084B1B68FB60074B69
:101030001A687B681344054A1360FB681846183722
:10104000BD4680BD0000082000040000A400002070
:101050009812002080B400AF064BD3F88830054AC0
:1010600043F47003C2F8883000BFBD465DF8047BCE
:10107000704700BF00ED00E0DFF834D00D480E49A6
:101080000E4A002302E0D458C4500433C4188C42E2
:10109000F9D30B4A0B4C002301E013600432A24247
:1010A000FBD3FFF7D7FF03F061FEFFF795FA704718
:1010B0000000082000000020840000206457000881
:1010C0008400002098120020FEE780B500AF0320C6
:1010D00000F018FD002000F005F8FFF79BFD00234D
:1010E000184680BD80B582B000AF7860124B1A6898
:1010F000124B1B7819464FF47A73B3FBF1F3B2FB32
:10110000F3F3184600F033FD0346002B01D0012312
:101110000EE07B680F2B0AD8002279684FF0FF3071
:1011200000F0FBFC064A7B681360002300E001230B
:1011300018460837BD4680BD140000201C00002062
:101140001800002080B400AF064B1B781A46064BEF
:101150001B681344044A136000BFBD465DF8047B5E
:10116000704700BF1C0000208412002080B400AF34
:10117000034B1B681846BD465DF8047B704700BFF3
:101180008412002080B584B000AF7860FFF7EEFFD6
:10119000B8607B68FB60FB68B3F1FF3F05D00A4B8A
:1011A0001B781A46FB681344FB6000BFFFF7DEFFA5
:1011B0000246BB68D31AFA689A42F7D800BF00BF4C
:1011C0001037BD4680BD00BF1C00002080B584B034
:1011D00000AF78600023FB737B68002B01D10123F3
:1011E00031E07B681B6C002B09D17868FFF736FD76
:1011F0007B6800225A647B68002283F83C207B686D
:101200001B6C03F01003002B16D17B681A6C104B7B
:10121000134043F002027B681A64786800F09EFA7B
:101220007B6800225A647B681B6C23F0030343F045
:1012300001027B681A6401E00123FB737B680022D2
:1012400083F83C20FB7B18461037BD4680BD00BFAD
:10125000FDEEFFFF80B586B000AF786000237B61B4
:1012600000233B617B681B681B68FB607B681B6815
:101270005B68BB60FB6803F002037B61BB6803F043
:1012800020033B617B69002B49D03B69002B46D092
:101290007B681B6C03F01003002B05D17B681B6C73
:1012A00043F400727B681A647B681B689B6803F0D8
:1012B0004053002B2BD17B689B69002B27D17B6887
:1012C0001B68DB6A03F47003002B06D07B681B6885
:1012D0009B6803F48063002B19D17B681B685A68F4
:1012E0007B681B6822F020025A607B681B6C23F429
:1012F00080727B681A647B681B6C03F48053002B3C
:1013000005D17B681B6C43F001027B681A64786826
:1013100000F0B0F87B681B686FF012021A60FB687F
:1013200003F004037B61BB6803F080033B617B69CE
:10133000002B57D03B69002B54D07B681B6C03F00B
:101340001003002B05D17B681B6C43F400527B68B3
:101350001A647B681B689B6803F44013002B39D127
:101360007B681B689B6B03F44013002B06D07B68E3
:101370001B689B6803F48063002B2BD17B681B6880
:101380005B6803F48063002B24D17B681B689B6837
:1013900003F04053002B1DD17B689B69002B19D1B2
:1013A0007B681B685A687B681B6822F080025A6061
:1013B0007B681B6C23F480527B681A647B681B6C0F
:1013C00003F48073002B05D17B681B6C43F0010292
:1013D0007B681A64786800F0BBFA7B681B686FF062
:1013E0000C021A60FB6803F001037B61BB6803F029
:1013F00040033B617B69002B17D03B69002B14D065
:101400007B681B681B6803F00103012B0DD17B680F
:101410001B6C43F480327B681A64786800F034F8FF
:101420007B681B686FF001021A60FB6803F0200301
:101430007B61BB6803F080633B617B69002B15D047
:101440003B69002B12D07B685B6C43F002027B6827
:101450005A647B681B686FF020021A60786800F09D
:101460001DF87B681B686FF020021A6000BF1837F8
:10147000BD4680BD80B483B000AF786000BF0C373C
:10148000BD465DF8047B704780B483B000AF7860E0
:1014900000BF0C37BD465DF8047B704780B483B055
:1014A00000AF786000BF0C37BD465DF8047B704725
:1014B00080B485B000AF786039600023FB607B6842
:1014C00093F83C30012B01D1022336E17B680122E5
:1014D00083F83C203B681B68092B3AD93B681B68A2
:1014E000B3F1004F35D07B681B68D9683B681B6837
:1014F0009BB21A4613465B0013441E3B072202FAB6
:1015000003F3DA437B681B680A40DA603B681B68B8
:101510008D4A93420AD17B681B68D9683B689B68F7
:101520001A067B681B680A43DA6035E07B681B6833
:10153000D9683B689A683B681B689BB218460346AB
:101540005B0003441E3B9A407B681B680A43DA60D9
:1015500022E07B681B6819693B681B689BB21A46CE
:1015600013465B001344072202FA03F3DA437B6855
:101570001B680A401A617B681B6819693B689A6896
:101580003B681B689BB2184603465B0003449A40C5
:101590007B681B680A431A613B685B68062B24D88A
:1015A0007B681B68596B3B685A6813469B00134461
:1015B000053B1F2202FA03F3DA437B681B680A40EB
:1015C0005A637B681B68596B3B681B689BB2184663
:1015D0003B685A6813469B001344053B00FA03F22C
:1015E0007B681B680A435A634CE03B685B680C2BC2
:1015F00024D87B681B68196B3B685A6813469B00AC
:101600001344233B1F2202FA03F3DA437B681B686F
:101610000A401A637B681B68196B3B681B689BB2A6
:1016200018463B685A6813469B001344233B00FA54
:1016300003F27B681B680A431A6323E07B681B681C
:10164000D96A3B685A6813469B001344413B1F22EA
:1016500002FA03F3DA437B681B680A40DA627B68AC
:101660001B68D96A3B681B689BB218463B685A687E
:1016700013469B001344413B00FA03F27B681B684E
:101680000A43DA627B681B68304A93420AD13B689E
:101690001B68B3F1004F05D12D4B5B682C4A23F436
:1016A000400353607B681B68284A93420FD13B6814
:1016B0001B68122B0BD1264B5B68254A23F40003D1
:1016C0005360234B5B68224A43F4800353607B687A
:1016D0001B681E4A93422BD13B681B681A4A9342EF
:1016E00003D03B681B68112B22D1194B5B68184A49
:1016F00023F480035360164B5B68154A43F40003E0
:1017000053603B681B68104A934211D1114B1B6810
:10171000114AA2FB03239A0C13469B0013445B005F
:10172000FB6002E0FB68013BFB60FB68002BF9D12A
:101730007B68002283F83C20002318461437BD46FE
:101740005DF8047B704700BF1200001000200140CC
:10175000002301401400002083DE1B4380B483B0CB
:1017600000AF7860784B5B68774A23F4403353606E
:10177000754B5A687B685B68734913434B607B68A1
:101780001B685A687B681B6822F480725A607B6809
:101790001B6859687B681B691A027B681B680A43CF
:1017A0005A607B681B685A687B681B6822F040722D
:1017B0005A607B681B6859687B689A687B681B68FD
:1017C0000A435A607B681B689A687B681B6822F42E
:1017D00000629A607B681B6899687B68DA687B683E
:1017E0001B680A439A607B689B6A584A934222D0DE
:1017F0007B681B689A687B681B6822F070629A603D
:101800007B681B6899687B689A6A7B681B680A43D7
:101810009A607B681B689A687B681B6822F040525C
:101820009A607B681B6899687B68DA6A7B681B68CA
:101830000A439A600FE07B681B689A687B681B68A4
:1018400022F070629A607B681B689A687B681B68EC
:1018500022F040529A607B681B689A687B681B681C
:1018600022F002029A607B681B6899687B689B691A
:101870005A007B681B680A439A607B6893F82030A3
:10188000002B1BD07B681B685A687B681B6842F47E
:1018900000625A607B681B685A687B681B6822F488
:1018A00060425A607B681B6859687B685B6A013BD1
:1018B0005A037B681B680A435A6007E07B681B6811
:1018C0005A687B681B6822F400625A607B681B6858
:1018D000DA6A7B681B6822F47002DA627B681B6834
:1018E000D96A7B68DB69013B1A057B681B680A4380
:1018F000DA627B681B689A687B681B6822F4007256
:101900009A607B681B6899687B6893F830305A024C
:101910007B681B680A439A607B681B689A687B68CF
:101920001B6822F480629A607B681B6899687B68F8
:101930005B699A027B681B680A439A6000BF0C3798
:10194000BD465DF8047B7047002301400100000F95
:1019500080B483B000AF786000BF0C37BD465DF83F
:10196000047B704780B485B000AF78607B6803F07B
:101970000703FB600B4BDB68BB60BA684FF6FF03E5
:101980001340BB60FB681A02BB681A43064B134343
:10199000BB60044ABB68D36000BF1437BD465DF826
:1019A000047B704700ED00E00000FA0580B400AF52
:1019B000044BDB681B0A03F007031846BD465DF8BD
:1019C000047B704700ED00E080B483B000AF0346B5
:1019D000FB7197F90730002B0BDBFB7903F01F023B
:1019E000074997F907305B09012000FA02F241F834
:1019F000232000BF0C37BD465DF8047B704700BF55
:101A000000E100E080B483B000AF03463960FB71B1
:101A100097F90730002B0ADB3B68DAB20C4997F9DB
:101A200007301201D2B20B4483F800230AE03B686E
:101A3000DAB20849FB7903F00F03043B1201D2B27A
:101A40000B441A7600BF0C37BD465DF8047B704727
:101A500000E100E000ED00E080B489B000AFF86084
:101A6000B9607A60FB6803F00703FB61FB69C3F1AF
:101A70000703042B28BF0423BB61FB690433062B37
:101A800002D9FB69033B00E000237B614FF0FF328A
:101A9000BB6902FA03F3DA43BB681A407B699A40D8
:101AA0004FF0FF317B6901FA03F3D9437B680B40A8
:101AB000134318462437BD465DF8047B7047000089
:101AC00080B582B000AF78607B68013BB3F1807F66
:101AD00001D301230FE00A4A7B68013B53600F21C9
:101AE0004FF0FF30FFF78EFF054B00229A60044B4A
:101AF00007221A60002318460837BD4680BD00BF84
:101B000010E000E080B582B000AF78607868FFF741
:101B100029FF00BF0837BD4680BD80B586B000AF45
:101B20000346B9607A60FB7300237B61FFF73EFFD9
:101B300078617A68B9687869FFF78EFF024697F98D
:101B40000F3011461846FFF75DFF00BF1837BD463E
:101B500080BD80B582B000AF0346FB7197F90730B6
:101B60001846FFF731FF00BF0837BD4680BD80B57E
:101B700082B000AF78607868FFF7A2FF034618468E
:101B80000837BD4680BD000080B586B000AF7860E4
:101B900000237B61FFF7EAFA38617B68002B01D1F3
:101BA000012399E07B68022283F835207B680022BC
:101BB00083F834207B681B681A687B681B6822F0F6
:101BC00001021A600FE0FFF7D1FA02463B69D31A0F
:101BD000052B08D97B6820225A657B68032283F88D
:101BE0003520032378E07B681B681B6803F0010342
:101BF000002BE8D17B681B681B687B617A69384BD6
:101C000013407B617B685A687B689B681A437B68DA
:101C1000DB681A437B681B691A437B685B691A435C
:101C20007B689B691A437B68DB691A437B681B6A84
:101C300013437A6913437B617B685B6A042B07D18A
:101C40007B68DA6A7B681B6B13437A6913437B6199
:101C50007B681B687A691A607B681B685B697B61BB
:101C60007B6923F007037B617B685B6A7A691343B6
:101C70007B617B685B6A042B17D17B689B6A7A69FE
:101C800013437B617B68DB6A002B0ED0786800F021
:101C900009FB0346002B08D07B6840225A657B680D
:101CA000012283F83520012316E07B681B687A69DE
:101CB0005A61786800F0C0FA0346FB607B68DB6D10
:101CC0003F229A40FB689A607B6800225A657B68D5
:101CD000012283F83520002318461837BD4680BD01
:101CE0003F8010E080B586B000AFF860B9607A60E0
:101CF0003B600023FB75FB689B6D3B61FB6893F8C1
:101D00003430012B01D1022348E0FB68012283F823
:101D10003420FB6893F83530DBB2012B37D1FB68F8
:101D2000022283F83520FB6800225A653B687A68F6
:101D3000B968F86800F052FAFB68DB6D3F229A4000
:101D40003B699A60FB681B681A68FB681B6842F075
:101D500016021A60FB681B685A69FB681B6842F030
:101D600080025A61FB681B6C002B07D0FB681B6864
:101D70001A68FB681B6842F008021A60FB681B685F
:101D80001A68FB681B6842F001021A6005E0FB68F4
:101D9000002283F834200223FB75FB7D1846183798
:101DA000BD4680BD80B584B000AF78607B689B6D18
:101DB000FB60FFF7DBF9B8607B6893F83530DBB286
:101DC000022B08D07B6880225A657B68002283F84A
:101DD0003420012352E07B681B681A687B681B680B
:101DE00022F016021A607B681B685A697B681B68C0
:101DF00022F080025A617B681B6C002B03D17B6848
:101E00009B6C002B07D07B681B681A687B681B687B
:101E100022F008021A607B681B681A687B681B68DE
:101E200022F001021A6013E0FFF7A0F90246BB6836
:101E3000D31A052B0CD97B6820225A657B680322B4
:101E400083F835207B68002283F83420032315E0D3
:101E50007B681B681B6803F00103002BE4D17B68DF
:101E6000DB6D3F229A40FB689A607B68012283F811
:101E700035207B68002283F8342000231846103771
:101E8000BD4680BD80B483B000AF78607B6893F8B6
:101E90003530DBB2022B04D07B6880225A650123E7
:101EA0000CE07B68052283F835207B681B681A6884
:101EB0007B681B6822F001021A60002318460C3769
:101EC000BD465DF8047B704780B586B000AF786092
:101ED0000023BB60924B1B68924AA2FB03239B0A20
:101EE0007B617B689B6D3B613B691B68FB607B682A
:101EF000DB6D08229A40FB681340002B1AD07B68E8
:101F00001B681B6803F00403002B13D07B681B685D
:101F10001A687B681B6822F004021A607B68DB6D1C
:101F200008229A403B699A607B685B6D43F001022E
:101F30007B685A657B68DB6D01229A40FB68134021
:101F4000002B12D07B681B685B6903F08003002BB9
:101F50000BD07B68DB6D01229A403B699A607B68FD
:101F60005B6D43F002027B685A657B68DB6D04227F
:101F70009A40FB681340002B12D07B681B681B68DB
:101F800003F00203002B0BD07B68DB6D04229A4028
:101F90003B699A607B685B6D43F004027B685A651D
:101FA0007B68DB6D10229A40FB681340002B43D006
:101FB0007B681B681B6803F00803002B3CD07B6820
:101FC000DB6D10229A403B699A607B681B681B6836
:101FD00003F48023002B18D07B681B681B6803F474
:101FE0000023002B08D17B681B6C002B24D07B685E
:101FF0001B6C786898471FE07B689B6C002B1BD09C
:102000007B689B6C7868984716E07B681B681B6848
:1020100003F48073002B07D17B681B681A687B6808
:102020001B6822F008021A607B681B6C002B03D02F
:102030007B681B6C786898477B68DB6D20229A4030
:10204000FB681340002B00F08E807B681B681B68C8
:1020500003F01003002B00F086807B68DB6D2022EC
:102060009A403B699A607B6893F83530DBB2052B68
:1020700036D17B681B681A687B681B6822F01602E1
:102080001A607B681B685A697B681B6822F08002B3
:102090005A617B681B6C002B03D17B689B6C002B07
:1020A00007D07B681B681A687B681B6822F00802EF
:1020B0001A607B68DB6D3F229A403B699A607B68BF
:1020C000012283F835207B68002283F834207B6866
:1020D0001B6D002B7DD07B681B6D7868984778E07E
:1020E0007B681B681B6803F48023002B1CD07B6873
:1020F0001B681B6803F40023002B08D17B685B6C12
:10210000002B30D07B685B6C786898472BE07B684D
:10211000DB6B002B27D07B68DB6B7868984722E06D
:1021200014000020B5814E1B7B681B681B6803F4FC
:102130008073002B0FD17B681B681A687B681B6853
:1021400022F010021A607B68012283F835207B6838
:10215000002283F834207B68DB6B002B03D07B6884
:10216000DB6B786898477B685B6D002B32D07B68AF
:102170005B6D03F00103002B22D07B68052283F8FE
:1021800035207B681B681A687B681B6822F0010297
:102190001A60BB680133BB607A699A4207D37B68D7
:1021A0001B681B6803F00103002BF2D100E000BFA5
:1021B0007B68012283F835207B68002283F8342075
:1021C0007B68DB6C002B05D07B68DB6C78689847FC
:1021D00000E000BF1837BD4680BD00BF80B485B0A9
:1021E00000AFF860B9607A603B60FB681B681A68F2
:1021F000FB681B6822F480221A60FB681B683A683F
:102200005A60FB689B68402B08D1FB681B687A68A2
:102210009A60FB681B68BA68DA6007E0FB681B68B5
:10222000BA689A60FB681B687A68DA6000BF143786
:10223000BD465DF8047B704780B485B000AF786020
:102240007B681B68DBB2103B134AA2FB03231B090C
:10225000FB60124AFB6813441B781A467B68DA65F8
:10226000FB68032B08D97B681B681A460C4B13408C
:102270001A1D7B689A6506E07B681B681A46084B46
:1022800013407A6893657B689B6D18461437BD468A
:102290005DF8047B704700BFABAAAAAA18570008D4
:1022A00000FCFFFF80B485B000AF78600023FB73B3
:1022B0007B689B6ABB607B689B69002B1FD1BB68F6
:1022C000032B56D801A252F823F000BFDD220008EC
:1022D000EF220008DD220008732300087B68DB6A18
:1022E00003F08073002B46D00123FB7343E07B682F
:1022F000DB6AB3F1C07F40D10123FB733DE07B6813
:102300009B69B3F5005F21D1BB68032B37D801A2CD
:1023100052F823F0252300082B230008252300086A
:102320003D2300080123FB7330E07B68DB6A03F088
:102330008073002B25D00123FB7322E07B68DB6ACE
:10234000B3F1C07F1FD10123FB731CE0BB68022BDC
:1023500003D9BB68032B03D018E00123FB7315E0FE
:102360007B68DB6A03F08073002B0ED00123FB73C4
:102370000BE000BF0AE000BF08E000BF06E000BFBE
:1023800004E000BF02E000BF00E000BFFB7B184696
:102390001437BD465DF8047B704700BF80B489B038
:1023A00000AF786039600023FB6100237B6100236C
:1023B0003B610023BB610023FB6175E10122FB69E6
:1023C00002FA03F37B613B681B687A6913403B6147
:1023D0003A697B699A4240F064813B685B6803F02C
:1023E0000303012B05D03B685B6803F00303022B5A
:1023F00030D17B689B68BB61FB695B00032202FAFA
:1024000003F3DB43BA691340BB613B68DA68FB69DD
:102410005B0002FA03F3BA691343BB617B68BA69D4
:102420009A607B685B68BB610122FB6902FA03F377
:10243000DB43BA691340BB613B685B681B0903F06F
:102440000102FB6902FA03F3BA691343BB617B68BB
:10245000BA695A603B685B6803F00303032B17D02B
:102460007B68DB68BB61FB695B00032202FA03F354
:10247000DB43BA691340BB613B689A68FB695B0048
:1024800002FA03F3BA691343BB617B68BA69DA6085
:102490003B685B6803F00303022B23D1FB69DA0876
:1024A0007B68083253F82230BB61FB6903F00703F5
:1024B0009B000F2202FA03F3DB43BA691340BB61AE
:1024C0003B681A69FB6903F007039B0002FA03F3F8
:1024D000BA691343BB61FB69DA087B680832B969E2
:1024E00043F822107B681B68BB61FB695B00032219
:1024F00002FA03F3DB43BA691340BB613B685B68D4
:1025000003F00302FB695B0002FA03F3BA691343A9
:10251000BB617B68BA691A603B685B6803F440334F
:10252000002B00F0BE80664B5B6C654A43F4804331
:102530005364634B5B6C03F48043FB60FB68614A4C
:10254000FB699B08023352F82330BB61FB6903F03F
:1025500003039B000F2202FA03F3DB43BA69134023
:10256000BB617B68584A934237D07B68574A934295
:1025700031D07B68564A93422BD07B68554A9342B0
:1025800025D07B68544A93421FD07B68534A9342BC
:1025900019D07B68524A934213D07B68514A9342C8
:1025A0000DD07B68504A934207D07B684F4A9342D4
:1025B00001D1092312E00A2310E008230EE00723CB
:1025C0000CE006230AE0052308E0042306E00323C9
:1025D00004E0022302E0012300E00023FA6902F094
:1025E000030292009340BA691343BB613549FB690A
:1025F0009B080233BA6941F823203D4B9B68BB61BD
:102600003B69DB43BA691340BB613B685B6803F419
:102610008013002B03D0BA693B691343BB61344A72
:10262000BB699360324BDB68BB613B69DB43BA69D2
:102630001340BB613B685B6803F40013002B03D0BD
:10264000BA693B691343BB61294ABB69D360284B14
:102650005B68BB613B69DB43BA691340BB613B68A4
:102660005B6803F40033002B03D0BA693B69134362
:10267000BB611F4ABB6953601D4B1B68BB613B6953
:10268000DB43BA691340BB613B685B6803F480338A
:10269000002B03D0BA693B691343BB61144ABB6981
:1026A0001360FB690133FB61FB690F2B7FF686AE7C
:1026B00000BF00BF2437BD465DF8047B704700BFF4
:1026C000003802400038014000000240000402408F
:1026D00000080240000C02400010024000140240BA
:1026E00000180240001C024000200240002402406A
:1026F000003C014080B483B000AF78600B467B8023
:1027000013467B707B78002B03D07A887B689A61B4
:1027100003E07B881A047B689A6100BF0C37BD46D2
:102720005DF8047B7047000080B400AF054B1B6868
:10273000044A43F48073136000BFBD465DF8047B18
:10274000704700BF0070004080B582B000AF00232A
:102750007B60234B1B6C224A43F080531364204B55
:102760001B6C03F080533B603B681E4B1B681D4A8B
:1027700043F480331360FEF7F9FC786009E0FEF75C
:10278000F5FC02467B68D31AB3F57A7F01D903239F
:1027900022E0144B5B6803F48033B3F5803FEED145
:1027A000104B1B680F4A43F400331360FEF7DEFC46
:1027B000786009E0FEF7DAFC02467B68D31AB3F5CD
:1027C0007A7F01D9032307E0064B5B6803F40033EB
:1027D000B3F5003FEED1002318460837BD4680BD53
:1027E000003802400070004080B586B000AF7860CD
:1027F0000023FB757B68002B01D101239BE27B68E2
:102800001B6803F00103002B00F08780964B9B6848
:1028100003F00C03042B0CD0934B9B6803F00C03C8
:10282000082B12D1904B5B6803F48003B3F5800F43
:102830000BD18D4B1B6803F40033002B6CD07B68ED
:102840005B68002B68D1012375E27B685B68B3F598
:10285000803F06D1844B1B68834A43F48033136066
:102860002EE07B685B68002B0CD17F4B1B687E4A97
:1028700023F4803313607C4B1B687B4A23F4802352
:1028800013601DE07B685B68B3F5A02F0CD1764B1D
:102890001B68754A43F480231360734B1B68724AAC
:1028A00043F4803313600BE06F4B1B686E4A23F4D4
:1028B000803313606C4B1B686B4A23F480231360D6
:1028C0007B685B68002B13D0FEF750FC386108E092
:1028D000FEF74CFC02463B69D31A642B01D9032353
:1028E00029E2614B1B6803F40033002BF0D014E0A5
:1028F000FEF73CFC386108E0FEF738FC02463B6915
:10290000D31A642B01D9032315E2574B1B6803F438
:102910000033002BF0D100E000BF7B681B6803F0A0
:102920000203002B69D0504B9B6803F00C03002B73
:102930000BD04D4B9B6803F00C03082B1CD14A4B6A
:102940005B6803F48003002B16D1474B1B6803F030
:102950000203002B05D07B68DB68012B01D001232B
:10296000E9E1414B1B6823F0F8027B681B69DB003F
:102970003D4913430B6040E07B68DB68002B23D0AC
:10298000394B1B68384A43F001031360FEF7EEFB36
:10299000386108E0FEF7EAFB02463B69D31A022BD6
:1029A00001D90323C7E1304B1B6803F00203002B5E
:1029B000F0D02D4B1B6823F0F8027B681B69DB000D
:1029C000294913430B6018E0274B1B68264A23F064
:1029D00001031360FEF7CAFB386108E0FEF7C6FB8F
:1029E00002463B69D31A022B01D90323A3E11E4BF4
:1029F0001B6803F00203002BF0D17B681B6803F017
:102A00000803002B38D07B685B69002B19D0164B6C
:102A10005B6F154A43F001035367FEF7A7FB38616C
:102A200008E0FEF7A3FB02463B69D31A022B01D94B
:102A3000032380E10C4B5B6F03F00203002BF0D00B
:102A40001AE0094B5B6F084A23F001035367FEF756
:102A50008DFB38610AE0FEF789FB02463B69D31A19
:102A6000022B03D9032366E100380240924B5B6FCF
:102A700003F00203002BEED17B681B6803F0040314
:102A8000002B00F0A4808C4B1B6C03F08053002BB8
:102A90000DD1894B1B6C884A43F080531364864BDD
:102AA0001B6C03F08053BB60BB680123FB75834B39
:102AB0001B6803F48073002B18D1804B1B687F4A7E
:102AC00043F480731360FEF751FB386108E0FEF7B2
:102AD0004DFB02463B69D31A642B01D903232AE13B
:102AE000764B1B6803F48073002BF0D07B689B68E7
:102AF000012B06D1704B1B6F6F4A43F00103136724
:102B00002DE07B689B68002B0CD16B4B1B6F6A4AD6
:102B100023F001031367684B1B6F674A23F004031C
:102B200013671CE07B689B68052B0CD1624B1B6F05
:102B3000614A43F0040313675F4B1B6F5E4A43F027
:102B4000010313670BE05C4B1B6F5B4A23F001032F
:102B50001367594B1B6F584A23F0040313677B68B4
:102B60009B68002B15D0FEF701FB38610AE0FEF7E9
:102B7000FDFA02463B69D31A41F28832934201D9E9
:102B80000323D8E04C4B1B6F03F00203002BEED065
:102B900014E0FEF7EBFA38610AE0FEF7E7FA0246C6
:102BA0003B69D31A41F28832934201D90323C2E030
:102BB000414B1B6F03F00203002BEED1FB7D012B79
:102BC00005D13D4B1B6C3C4A23F0805313647B685A
:102BD0009B69002B00F0AE80374B9B6803F00C0321
:102BE000082B6DD07B689B69022B4BD1324B1B6845
:102BF000314A23F080731360FEF7B8FA386108E0B9
:102C0000FEF7B4FA02463B69D31A022B01D903231B
:102C100091E0294B1B6803F00073002BF0D17B6817
:102C2000DA697B681B6A1A437B685B6A9B011A43FB
:102C30007B689B6A5B08013B1B041A437B68DB6A69
:102C40001B061A437B681B6B1B071B4913434B6016
:102C5000194B1B68184A43F080731360FEF786FA1D
:102C6000386108E0FEF782FA02463B69D31A022B6C
:102C700001D903235FE0104B1B6803F00073002BA6
:102C8000F0D057E00C4B1B680B4A23F080731360A5
:102C9000FEF76CFA386108E0FEF768FA02463B6915
:102CA000D31A022B01D9032345E0034B1B6803F021
:102CB0000073002BF0D13DE000380240007000406E
:102CC0001F4B5B68FB607B689B69012B30D0FB6806
:102CD00003F480027B68DB699A4229D1FB6803F028
:102CE0003F027B681B6A9A4222D1FA6847F6C0739A
:102CF00013407A68526A9201934219D1FB6803F437
:102D000040327B689B6A5B08013B1B049A420FD1EF
:102D1000FB6803F070627B68DB6A1B069A4207D18E
:102D2000FB6803F0E0427B681B6B1B079A4201D0F3
:102D3000012300E0002318461837BD4680BD00BFC0
:102D40000038024080B584B000AF7860396000235D
:102D5000FB607B68002B01D10123D0E06A4B1B682C
:102D600003F00F033A689A4210D9674B1B6823F0AF
:102D70000F0265493B6813430B60634B1B6803F00C
:102D80000F033A689A4201D00123B8E07B681B68C0
:102D900003F00203002B20D07B681B6803F00403C0
:102DA000002B05D0594B9B68584A43F4E05393607D
:102DB0007B681B6803F00803002B05D0534B9B680E
:102DC000524A43F460439360504B9B6823F0F002F7
:102DD0007B689B684D4913438B607B681B6803F0DD
:102DE0000103002B40D07B685B68012B07D1474B68
:102DF0001B6803F40033002B15D101237FE07B68AF
:102E00005B68022B07D1414B1B6803F00073002B5A
:102E100009D1012373E03D4B1B6803F00203002B33
:102E200001D101236BE0394B9B6823F003027B68DF
:102E30005B68364913438B60FEF798F9F8600AE047
:102E4000FEF794F90246FB68D31A41F288329342A6
:102E500001D9032353E02D4B9B6803F00C027B68E0
:102E60005B689B009A42EBD1274B1B6803F00F0372
:102E70003A689A4210D2244B1B6823F00F02224971
:102E80003B6813430B60204B1B6803F00F033A6849
:102E90009A4201D0012332E07B681B6803F00403EF
:102EA000002B08D0194B9B6823F4E0527B68DB6849
:102EB000164913438B607B681B6803F00803002BE3
:102EC00009D0124B9B6823F460427B681B69DB00CE
:102ED0000E4913438B6000F021F802460B4B9B68B0
:102EE0001B0903F00F030A49CB5C22FA03F3094ADA
:102EF0001360094B1B681846FEF7F4F800231846C8
:102F00001037BD4680BD00BF003C02400038024083
:102F10000057000814000020180000202DE9B043DD
:102F200084B000AF00237B600023FB6000233B6084
:102F30000023BB60674B9B6803F00C03082B0DD08C
:102F4000082B00F2BD80002B02D0042B03D0B7E089
:102F5000614BBB60B7E0614BBB60B4E05D4B5B684D
:102F600003F03F037B605B4B5B6803F48003002B43
:102F70004DD0584B5B689B091A464FF0000340F256
:102F8000FF104FF0000102EA000803EA0109404681
:102F900049464FF000024FF000034B0143EAD06373
:102FA000420110461946B0EB080061EB09014FF0F1
:102FB00000024FF000038B0143EA90638201121A72
:102FC00063EB01034FF000004FF00001D90041EA2C
:102FD0005271D00002460B4612EB080243EB090384
:102FE0004FF000004FF00001590241EAD251500267
:102FF00002460B46104619467B681A464FF00003FE
:10300000FDF76EF902460B461346FB604AE0314B72
:103010005B689B091A464FF0000340F2FF104FF027
:10302000000102EA000403EA0105204629464FF0A8
:1030300000024FF000034B0143EAD0634201104607
:103040001946001B61EB05014FF000024FF0000331
:103050008B0143EA90638201121A63EB01034FF084
:1030600000004FF00001D90041EA5271D000024641
:103070000B46121945EB03034FF000004FF000011F
:10308000990241EA9251900202460B4610461946B7
:103090007B681A464FF00003FDF722F902460B4603
:1030A0001346FB600B4B5B681B0C03F003030133FF
:1030B0005B003B60FA683B68B2FBF3F3BB6002E085
:1030C000054BBB6000BFBB6818461037BD46BDE866
:1030D000B08300BF003802400024F40000127A00E0
:1030E00080B400AF034B1B681846BD465DF8047BF7
:1030F000704700BF1400002080B500AFFFF7F0FF5D
:103100000246054B9B689B0A03F007030349CB5C0F
:1031100022FA03F3184680BD003802401057000819
:1031200080B500AFFFF7DCFF0246054B9B685B0BE9
:1031300003F007030349CB5C22FA03F3184680BD72
:10314000003802401057000880B588B000AF7860A2
:1031500000237B6100233B610023FB600023FB61B4
:103160000023BB617B681B6803F00103002B12D0B6
:10317000694B9B68684A23F400039360664B9A6826
:103180007B685B6B644913438B607B685B6B002BD4
:1031900001D10123FB617B681B6803F40023002B32
:1031A00017D05D4BD3F88C3023F440127B68DB6B77
:1031B00059491343C1F88C307B68DB6BB3F5801F32
:1031C00001D10123FB617B68DB6B002B01D1012363
:1031D000BB617B681B6803F48013002B17D04E4B38
:1031E000D3F88C3023F440027B681B6C4A491343AC
:1031F000C1F88C307B681B6CB3F5800F01D10123C3
:10320000FB617B681B6C002B01D10123BB617B68D8
:103210001B6803F08073002B01D00123FB617B68E6
:103220001B6803F02003002B00F08B803A4B1B6CD3
:10323000394A43F080531364374B1B6C03F08053BF
:10324000BB60BB68354B1B68344A43F48073136022
:10325000FDF78CFF786108E0FDF788FF02467B6987
:10326000D31A642B01D903238FE32C4B1B6803F47F
:103270008073002BF0D0284B1B6F03F440733B612D
:103280003B69002B35D07B681B6B03F440733A69B4
:103290009A422ED0204B1B6F23F440733B611E4B90
:1032A0001B6F1D4A43F4803313671B4B1B6F1A4A75
:1032B00023F480331367184A3B691367164B1B6F5F
:1032C00003F00103012B14D1FDF750FF78610AE0F0
:1032D000FDF74CFF02467B69D31A41F288329342D4
:1032E00001D9032351E30C4B1B6F03F00203002BA6
:1032F000EED07B681B6B03F44073B3F5407F11D1B4
:10330000054B9B6823F4F8127B68196B044B0B4048
:10331000014913438B600BE000380240007000400D
:10332000FFFCFF0FB34B9B68B24A23F4F813936082
:10333000B04B1A6F7B681B6BC3F30B03AD49134390
:103340000B677B681B6803F01003002B10D0A94BA0
:10335000D3F88C30A74A23F08073C2F88C30A54B89
:10336000D3F88C207B689B6BA2491343C1F88C3047
:103370007B681B6803F48043002B0AD09D4BD3F875
:10338000903023F440327B685B6E9A491343C1F856
:1033900090307B681B6803F40043002B0AD0954BE8
:1033A000D3F8903023F440227B689B6E91491343FD
:1033B000C1F890307B681B6803F48033002B0AD07F
:1033C0008C4BD3F8903023F440127B68DB6E894934
:1033D0001343C1F890307B681B6803F40033002B63
:1033E0000AD0844BD3F8903023F440027B681B6FE3
:1033F00080491343C1F890307B681B6803F0400399
:10340000002B0AD07B4BD3F8903023F003027B686B
:103410005B6C78491343C1F890307B681B6803F0FC
:103420008003002B0AD0734BD3F8903023F00C02AA
:103430007B689B6C6F491343C1F890307B681B68B5
:1034400003F48073002B0AD06A4BD3F8903023F03A
:1034500030027B68DB6C67491343C1F890307B68AE
:103460001B6803F40073002B0AD0624BD3F8903032
:1034700023F0C0027B681B6D5E491343C1F8903096
:103480007B681B6803F48063002B0AD0594BD3F888
:10349000903023F440727B685B6D56491343C1F84A
:1034A00090307B681B6803F40063002B0AD0514BFB
:1034B000D3F8903023F440627B689B6D4D491343F1
:1034C000C1F890307B681B6803F48053002B0AD04E
:1034D000484BD3F8903023F440527B68DB6D45496C
:1034E0001343C1F890307B681B6803F40053002B32
:1034F0000AD0404BD3F8903023F440427B681B6ED7
:103500003C491343C1F890307B681B6803F4800387
:10351000002B0AD0374BD3F8903023F080627B68C1
:103520009B6F34491343C1F890307B681B6803F4E8
:103530000013002B11D02F4BD3F8903023F00062F2
:103540007B68DB6F2B491343C1F890307B68DB6FDE
:10355000B3F1006F01D10123BB617B681B6803F0ED
:103560000803002B01D00123BB617B681B6803F4B7
:103570008023002B0AD01F4BD3F8903023F04072E9
:103580007B685B6F1B491343C1F890307B681B68F5
:1035900003F40003002B0BD0164BD3F8903023F02C
:1035A00080527B68D3F8803012491343C1F89030C1
:1035B0007B681B6803F08063002B0BD00D4BD3F8A6
:1035C000903023F000527B68D3F8843009491343CC
:1035D000C1F890307B681B6803F00063002B0FD0AC
:1035E000044BD3F88C3023F000727B68D3F888301A
:1035F00002E000BF0038024086491343C1F88C3016
:103600007B681B6803F08053002B0BD0814BD3F8F1
:103610008C3023F080627B68D3F88C307D49134373
:10362000C1F88C30FB69012B06D07B681B6803F066
:103630000073002B00F0D680764B1B68754A23F090
:1036400080631360FDF792FD786108E0FDF78EFD61
:1036500002467B69D31A642B01D9032395E16D4B94
:103660001B6803F00063002BF0D17B681B6803F03C
:103670000103002B21D07B685B6B002B1DD1654BB8
:10368000D3F884301B0C03F003033B61614BD3F888
:1036900084301B0E03F00F03FB607B685B689A01AC
:1036A0003B691B041A43FB681B061A437B689B6833
:1036B0001B0758491343C1F884307B681B6803F427
:1036C0000023002B04D07B68DB6BB3F5801F0AD08E
:1036D0007B681B6803F48013002B2ED07B681B6C67
:1036E000B3F5800F29D14B4BD3F884301B0C03F07A
:1036F00003033B61474BD3F884301B0F03F00703F0
:10370000FB607B685B689A013B691B041A437B681A
:10371000DB681B061A43FB681B073E491343C1F8CD
:1037200084303C4BD3F88C3023F01F027B685B6AFB
:10373000013B38491343C1F88C307B681B6803F0A8
:103740008073002B1DD0334BD3F884301B0E03F055
:103750000F033B612F4BD3F884301B0F03F007039B
:10376000FB607B685B689A017B681B691B041A43DA
:103770003B691B061A43FB681B0726491343C1F824
:1037800084307B681B6803F00073002B11D07B68CA
:103790005B689A017B681B691B041A437B68DB68C2
:1037A0001B061A437B689B681B071A491343C1F821
:1037B0008430184B1B68174A43F080631360FDF791
:1037C000D5FC786108E0FDF7D1FC02467B69D31A8D
:1037D000642B01D90323D8E00E4B1B6803F0006370
:1037E000002BF0D0BB69012B40F0CE80094B1B6849
:1037F000084A23F080531360FDF7B8FC78610BE0B2
:10380000FDF7B4FC02467B69D31A642B04D9032369
:10381000BBE000BF003802405E4B1B6803F0005362
:10382000B3F1005FECD07B681B6803F40023002B2E
:1038300003D07B68DB6B002B09D07B681B6803F42B
:103840008013002B2ED07B681B6C002B2AD1514B90
:10385000D3F888301B0C03F003033B614D4BD3F8C6
:1038600088301B0F03F00703FB607B685B699A01DC
:103870003B691B041A437B689B691B061A43FB6860
:103880001B0744491343C1F88830424BD3F88C30AE
:1038900023F4F8527B689B6A013B1B023D491343AA
:1038A000C1F88C307B681B6803F40013002B22D016
:1038B0007B68DB6FB3F1006F1DD1364BD3F88830D6
:1038C0001B0E03F00F033B61324BD3F888301B0F04
:1038D00003F00703FB607B685B699A017B681B6AE6
:1038E0001B041A433B691B061A43FB681B07294943
:1038F0001343C1F888307B681B6803F00803002B72
:1039000028D0244BD3F888301B0E03F00F033B6103
:10391000204BD3F888301B0C03F00303FB607B685B
:103920005B699A01FB681B041A433B691B061A4337
:103930007B68DB691B0717491343C1F88830154BB7
:10394000D3F88C3023F440327B68DB6A114913438F
:10395000C1F88C300F4B1B680E4A43F08053136044
:10396000FDF704FC786108E0FDF700FC02467B6986
:10397000D31A642B01D9032307E0064B1B6803F01D
:103980000053B3F1005FEFD1002318462037BD4646
:1039900080BD00BF0038024080B582B000AF7860C3
:1039A0007B68002B01D1012340E07B689B6F002BDB
:1039B00006D17B68002283F874207868FDF796F9B9
:1039C0007B6824229A677B681B681A687B681B687F
:1039D00022F001021A60786800F050FC0346012BC7
:1039E00001D1012322E07B685B6A002B02D078685A
:1039F00000F0A6FE7B681B685A687B681B6822F48F
:103A000090425A607B681B689A687B681B6822F04A
:103A10002A029A607B681B681A687B681B6842F000
:103A200001021A60786800F02DFF03461846083737
:103A3000BD4680BD80B58AB002AFF860B9603B601A
:103A40001346FB80FB689B6F202B40F08180BB6896
:103A5000002B02D0FB88002B01D1012379E0FB6809
:103A600093F87430012B01D1022372E0FB6801222C
:103A700083F87420FB680022C3F88020FB682122B1
:103A80009A67FDF773FB7861FB68FA88A3F850200A
:103A9000FB68FA88A3F85220FB689B68B3F5805F47
:103AA00008D1FB681B69002B04D10023FB61BB68B4
:103AB000BB6103E0BB68FB610023BB61FB680022C4
:103AC00083F874202CE03B6800937B6900228021FE
:103AD000F86800F020FF0346002B01D0032338E0F4
:103AE000FB69002B0BD1BB691B881A46FB681B685E
:103AF000C2F308029A62BB690233BB6107E0FB694B
:103B00001A78FB681B689A62FB690133FB61FB68EA
:103B1000B3F852309BB2013B9AB2FB68A3F8522033
:103B2000FB68B3F852309BB2002BCCD13B680093BA
:103B30007B6900224021F86800F0EDFE0346002B6F
:103B400001D0032305E0FB6820229A67002300E0F0
:103B5000022318462037BD4680BD000080B58AB0DC
:103B600000AFF860B9601346FB80FB689B6F202BA9
:103B700078D1BB68002B02D0FB88002B01D1012338
:103B800071E0FB6893F87430012B01D102236AE0E5
:103B9000FB68012283F87420FB68BA68DA64FB686A
:103BA000FA88A3F85020FB68FA88A3F85220FB6833
:103BB0000022C3F88020FB6821229A67FB68DB6E35
:103BC000002B2BD0FB68DB6E294ADA63FB68DB6EC7
:103BD000284A1A64FB68DB6E274ADA64FB68DB6EEE
:103BE00000221A65FB68D86EFB68DB6C1946FB681F
:103BF0001B6828331A46FB88FEF774F80346002B2F
:103C00000CD0FB681022C3F88020FB68002283F8E8
:103C10007420FB6820229A67012324E0FB681B685C
:103C200040221A62FB68002283F87420FB681B683C
:103C300008337B617B6953E8003F3B613B6943F09C
:103C400080037B62FB681B6808337A6A3A62FB6117
:103C5000F9693A6A41E80023BB61BB69002BE5D1F1
:103C6000002300E0022318462837BD4680BD00BF70
:103C7000B14B0008474C0008634C000880B5BAB04F
:103C800000AF78607B681B68DB69C7F8E4307B684D
:103C90001B681B68C7F8E0307B681B689B68C7F827
:103CA000DC30D7F8E42040F60F031340C7F8D830D3
:103CB000D7F8D830002B15D1D7F8E43003F0200323
:103CC000002B0FD0D7F8E03003F02003002B09D0F1
:103CD0007B685B6E002B00F0A4827B685B6E78686B
:103CE00098479EE2D7F8D830002B00F01781D7F81C
:103CF000DC3003F00103002B06D1D7F8E020854B20
:103D00001340002B00F00A81D7F8E43003F00103E0
:103D1000002B11D0D7F8E03003F48073002B0BD0C8
:103D20007B681B6801221A627B68D3F8803043F0FD
:103D300001027B68C3F88020D7F8E43003F0020367
:103D4000002B11D0D7F8DC3003F00103002B0BD08F
:103D50007B681B6802221A627B68D3F8803043F0CC
:103D600004027B68C3F88020D7F8E43003F0040332
:103D7000002B11D0D7F8DC3003F00103002B0BD05F
:103D80007B681B6804221A627B68D3F8803043F09A
:103D900002027B68C3F88020D7F8E43003F0080300
:103DA000002B17D0D7F8E03003F02003002B05D10B
:103DB000D7F8DC3003F00103002B0BD07B681B68C5
:103DC00008221A627B68D3F8803043F008027B68CF
:103DD000C3F88020D7F8E43003F40063002B12D03E
:103DE000D7F8E03003F08063002B0CD07B681B68B1
:103DF0004FF400621A627B68D3F8803043F02002EF
:103E00007B68C3F880207B68D3F88030002B00F0FB
:103E10000A82D7F8E43003F02003002B0DD0D7F846
:103E2000E03003F02003002B07D07B685B6E002B93
:103E300003D07B685B6E786898477B68D3F88030E6
:103E4000C7F8D4307B681B689B6803F04003402BA5
:103E500005D0D7F8D43003F02803002B4FD0786872
:103E600000F043FE7B681B689B6803F04003402B17
:103E700041D17B681B680833C7F89C30D7F89C3069
:103E800053E8003FC7F89830D7F8983023F0400344
:103E9000C7F8D0307B681B680833D7F8D020C7F844
:103EA000A820C7F8A430D7F8A410D7F8A82041E874
:103EB0000023C7F8A030D7F8A030002BD9D17B68F9
:103EC0001B6F002B13D07B681B6F134A1A657B682E
:103ED0001B6F1846FDF7D6FF0346002B17D07B68F3
:103EE0001B6F1B6D7A68126F104698470FE0786859
:103EF00000F0A4F90BE0786800F0A0F907E078681A
:103F000000F09CF97B680022C3F880208BE100BFA1
:103F100089E100BF20010004DF4C00087B681B6EB4
:103F2000012B40F04481D7F8E43003F01003002B5C
:103F300000F03D81D7F8E03003F01003002B00F0D3
:103F400036817B681B6810221A627B681B689B683D
:103F500003F04003402B40F0B2807B681B6F1B686E
:103F60005B68A7F8BE30B7F8BE30002B00F05D816B
:103F70007B68B3F85830B7F8BE209A4280F055817C
:103F80007B68B7F8BE20A3F85A207B681B6FDB69FB
:103F9000B3F5807F00F085807B681B68C7F88830A8
:103FA000D7F8883053E8003FC7F88430D7F884301A
:103FB00023F48073C7F8B8307B681B681A46D7F8BB
:103FC000B830C7F89430C7F89020D7F89010D7F8D9
:103FD000942041E80023C7F88C30D7F88C30002BB0
:103FE000DAD17B681B6808337B677B6F53E8003F3F
:103FF0003B673B6F23F00103C7F8B4307B681B6855
:104000000833D7F8B420C7F88020FB67F96FD7F8DA
:10401000802041E80023BB67BB6F002BE1D17B68A8
:104020001B6808333B663B6E53E8003FFB65FB6D46
:1040300023F04003C7F8B0307B681B680833D7F81B
:10404000B020FA66BB66B96EFA6E41E800237B6663
:104050007B6E002BE3D17B682022DA677B6800222D
:104060001A667B681B68FB64FB6C53E8003FBB640B
:10407000BB6C23F01003C7F8AC307B681B681A4692
:10408000D7F8AC30BB657A65796DBA6D41E800232D
:104090003B653B6D002BE4D17B681B6F1846FDF739
:1040A00081FE7B68B3F858207B68B3F85A309BB226
:1040B000D31A9BB21946786800F0CAF8B5E07B685D
:1040C000B3F858207B68B3F85A309BB2D31AA7F8DC
:1040D000CE307B68B3F85A309BB2002B00F0A7803B
:1040E000B7F8CE30002B00F0A2807B681B68BB6362
:1040F000BB6B53E8003F7B637B6B23F49073C7F883
:10410000C8307B681B681A46D7F8C8307B643A64AD
:10411000396C7A6C41E80023FB63FB6B002BE4D124
:104120007B681B6808337B627B6A53E8003F3B6215
:104130003B6A23F00103C7F8C4307B681B6808336F
:10414000D7F8C4203A63FB62F96A3A6B41E800236E
:10415000BB62BB6A002BE3D17B682022DA677B68F5
:1041600000221A667B6800225A667B681B683B61E6
:104170003B6953E8003FFB60FB6823F01003C7F87E
:10418000C0307B681B681A46D7F8C030FB61BA6143
:10419000B969FA6941E800237B617B69002BE4D1AE
:1041A000B7F8CE301946786800F052F83FE0D7F8FB
:1041B000E43003F48013002B0ED0D7F8DC3003F486
:1041C0008003002B08D07B681B684FF480121A62B2
:1041D000786800F049F82DE0D7F8E43003F0800368
:1041E000002B0ED0D7F8E03003F08003002B08D06E
:1041F0007B689B6E002B1CD07B689B6E7868984711
:1042000017E0D7F8E43003F04003002B12D0D7F8C2
:10421000E03003F04003002B0CD0786800F075FD0F
:1042200008E000BF06E000BF04E000BF02E000BFFE
:1042300000E000BFE837BD4680BD00BF80B483B05A
:1042400000AF786000BF0C37BD465DF8047B704757
:1042500080B483B000AF78600B467B8000BF0C3722
:10426000BD465DF8047B704780B483B000AF7860D2
:1042700000BF0C37BD465DF8047B704780B588B041
:1042800000AF78600023BB777B689A687B681B6906
:104290001A437B685B691A437B68DB6913437B6164
:1042A0007B681B681A68A74B13407A6812687969A3
:1042B0000B4313607B681B685B6823F440517B6889
:1042C000DA687B681B680A435A607B689B697B617C
:1042D0007B681B6A7A6913437B617B681B689B68F8
:1042E00023F430617B681B687A690A439A607B68B3
:1042F0001B68954A934220D1944BD3F8903003F039
:104300000303032B16D801A252F823F01D43000823
:1043100029430008234300082F4300080123FB77AB
:104320004FE10223FB774CE10423FB7749E10823AB
:10433000FB7746E11023FB7743E17B681B68844AE7
:10434000934232D1814BD3F8903003F00C030C2B05
:1043500028D801A252F823F08D430008A543000895
:10436000A5430008A543000899430008A543000899
:10437000A5430008A543000893430008A54300088F
:10438000A5430008A54300089F4300080023FB77CE
:1043900017E10223FB7714E10423FB7711E10823E3
:1043A000FB770EE11023FB770BE17B681B68694A02
:1043B000934220D1654BD3F8903003F03003302B7B
:1043C00013D0302B14D8202B09D0202B10D8002B41
:1043D00002D0102B06D00BE00023FB77F1E0022384
:1043E000FB77EEE00423FB77EBE00823FB77E8E0C4
:1043F0001023FB77E5E07B681B68574A934220D186
:10440000524BD3F8903003F0C003C02B13D0C02B15
:1044100014D8802B09D0802B10D8002B02D0402B31
:1044200006D00BE00023FB77CBE00223FB77C8E04C
:104430000423FB77C5E00823FB77C2E01023FB775A
:10444000BFE07B681B68454A934225D13F4BD3F8B8
:10445000903003F44073B3F5407F17D0B3F5407F3D
:1044600017D8B3F5007F0BD0B3F5007F11D8002B20
:1044700003D0B3F5807F06D00BE00023FB77A0E0EC
:104480000223FB779DE00423FB779AE00823FB7768
:1044900097E01023FB7794E07B681B68304A9342D7
:1044A00025D12A4BD3F8903003F44063B3F5406F25
:1044B00017D0B3F5406F17D8B3F5006F0BD0B3F535
:1044C000006F11D8002B03D0B3F5806F06D00BE03E
:1044D0000123FB7775E00223FB7772E00423FB776F
:1044E0006FE00823FB776CE01023FB7769E07B68C3
:1044F0001B681C4A934237D1144BD3F8903003F415
:104500004053B3F5405F17D0B3F5405F17D8B3F50C
:10451000005F0BD0B3F5005F11D8002B03D0B3F5CB
:10452000805F06D00BE00023FB774AE00223FB7795
:1045300047E00423FB7744E00823FB7741E01023A6
:10454000FB773EE0F369FFEF0010014000380240C6
:104550000044004000480040004C00400050004033
:1045600000140140007800407B681B68714A934248
:1045700025D1714BD3F8903003F44043B3F5404F4D
:1045800017D0B3F5404F17D8B3F5004F0BD0B3F5A4
:10459000004F11D8002B03D0B3F5804F06D00BE0AD
:1045A0000023FB770DE00223FB770AE00423FB776F
:1045B00007E00823FB7704E01023FB7701E01023DA
:1045C000FB777B68DB69B3F5004F5AD1FB7F082B83
:1045D00027D801A252F823F0FD450008054600083F
:1045E0000D4600082346000813460008234600082D
:1045F00023460008234600081B460008FEF77CFD02
:10460000B86113E0FEF78CFDB8610FE04B4BBB6166
:104610000CE0FEF783FCB86108E04FF40043BB6197
:1046200004E00023BB610123BB7700BFBB69002B03
:1046300074D0BB695A007B685B685B081A447B686E
:104640005B68B2FBF3F33B613B690F2B16D93B6907
:10465000B3F5803F12D23B699BB223F00F03FB817D
:104660003B695B089BB203F007039AB2FB891343D3
:10467000FB817B681B68FA89DA604FE00123BB7716
:104680004CE0FB7F082B28D801A252F823F000BF92
:10469000B5460008BD460008C5460008DB460008D0
:1046A000CB460008DB460008DB460008DB46000876
:1046B000D3460008FEF720FDB86113E0FEF730FD99
:1046C000B8610FE01D4BBB610CE0FEF727FCB86141
:1046D00008E04FF40043BB6104E00023BB61012309
:1046E000BB7700BFBB69002B18D07B685B685A089A
:1046F000BB691A447B685B68B2FBF3F33B613B69BF
:104700000F2B09D93B69B3F5803F05D23B699AB2BB
:104710007B681B68DA6001E00123BB777B680022BD
:104720005A667B6800229A66BB7F18462037BD46D2
:1047300080BD00BF007C0040003802400024F4002F
:1047400080B483B000AF78607B685B6A03F00103DC
:10475000002B0AD07B681B685B6823F400317B6800
:104760009A6A7B681B680A435A607B685B6A03F03D
:104770000203002B0AD07B681B685B6823F480313E
:104780007B68DA6A7B681B680A435A607B685B6AED
:1047900003F00403002B0AD07B681B685B6823F4DA
:1047A00080217B681A6B7B681B680A435A607B68B0
:1047B0005B6A03F00803002B0AD07B681B685B6808
:1047C00023F400417B685A6B7B681B680A435A607C
:1047D0007B685B6A03F01003002B0AD07B681B68C0
:1047E0009B6823F480517B689A6B7B681B680A4343
:1047F0009A607B685B6A03F02003002B0AD07B6819
:104800001B689B6823F400517B68DA6B7B681B682C
:104810000A439A607B685B6A03F04003002B1AD05E
:104820007B681B685B6823F480117B681A6C7B686B
:104830001B680A435A607B681B6CB3F5801F0AD162
:104840007B681B685B6823F4C0017B685A6C7B68DB
:104850001B680A435A607B685B6A03F08003002B85
:104860000AD07B681B685B6823F400217B689A6C24
:104870007B681B680A435A6000BF0C37BD465DF871
:10488000047B704780B586B002AF78607B680022F9
:10489000C3F88020FCF76AFCF8607B681B681B6823
:1048A00003F00803082B0ED16FF07E430093FB68E2
:1048B00000224FF40011786800F02DF80346002B19
:1048C00001D0032323E07B681B681B6803F004030B
:1048D000042B0ED16FF07E430093FB6800224FF44F
:1048E0008001786800F017F80346002B01D00323FD
:1048F0000DE07B6820229A677B682022DA677B685C
:1049000000221A667B68002283F874200023184670
:104910001037BD4680BD80B59CB000AFF860B9606F
:104920003B601346FB71A5E0BB6FB3F1FF3F00F0A6
:10493000A180FCF71BFC02463B68D31ABA6F9A426F
:1049400002D3BB6F002B3ED1FB681B683B653B6D00
:1049500053E8003FFB64FB6C23F4D0737B66FB6879
:104960001B681A467B6EFB65BA65B96DFA6D41E846
:1049700000237B657B6D002BE6D1FB681B68083349
:10498000FB63FB6B53E8003FBB63BB6B23F001038E
:104990003B66FB681B6808333A6EBA647B64796CCB
:1049A000BA6C41E800233B643B6C002BE5D1FB680B
:1049B00020229A67FB682022DA67FB68002283F8CE
:1049C0007420032367E0FB681B681B6803F0040383
:1049D000002B4FD0FB681B68DB6903F40063B3F561
:1049E000006F47D1FB681B684FF400621A62FB68D6
:1049F0001B68BB62BB6A53E8003F7B627B6A23F49F
:104A0000D073FB66FB681B681A46FB6E7B633A63D8
:104A1000396B7A6B41E80023FB62FB6A002BE6D11D
:104A2000FB681B6808337B617B6953E8003F3B618F
:104A30003B6923F00103BB66FB681B680833BA6E51
:104A40003A62FB61F9693A6A41E80023BB61BB69DC
:104A5000002BE5D1FB6820229A67FB682022DA67E9
:104A6000FB682022C3F88020FB68002283F87420B2
:104A7000032310E0FB681B68DA69BB681340BA685F
:104A80009A420CBF01230023DBB21A46FB799A42FB
:104A90003FF44AAF002318467037BD4680BD80B44E
:104AA00089B000AF78607B681B68FB60FB6853E8E7
:104AB000003FBB60BB6823F0C003FB617B681B68E1
:104AC0001A46FB69BB617A617969BA6941E80023DA
:104AD0003B613B69002BE6D17B6820229A6700BFCF
:104AE0002437BD465DF8047B704780B495B000AFB5
:104AF00078607B681B687B637B6B53E8003F3B639C
:104B00003B6B23F49073FB647B681B681A46FB6C59
:104B10003B64FA63F96B3A6C41E80023BB63BB6BFF
:104B2000002BE6D17B681B6808333B623B6A53E885
:104B3000003FFB61FB6923F00103BB647B681B68DA
:104B40000833BA6CFA62BB62B96AFA6A41E80023B8
:104B50007B627B6A002BE5D17B681B6E012B18D131
:104B60007B681B68FB60FB6853E8003FBB60BB6869
:104B700023F010037B647B681B681A467B6CBB6167
:104B80007A617969BA6941E800233B613B69002B8E
:104B9000E6D17B682022DA677B6800221A667B6890
:104BA00000225A6600BF5437BD465DF8047B70474B
:104BB00080B590B000AF78607B689B6BFB637B68CF
:104BC000DB69B3F5807F37D0FB6B0022A3F852205E
:104BD000FB6B1B6808337B627B6A53E8003F3B62D8
:104BE0003B6A23F08003BB63FB6B1B680833BA6B23
:104BF0003A63FB62F96A3A6B41E80023BB62BB6A25
:104C0000002BE5D1FB6B1B683B613B6953E8003F20
:104C1000FB60FB6843F040037B63FB6B1B681A4639
:104C20007B6BFB61BA61B969FA6941E800237B617A
:104C30007B69002BE6D102E0F86BFBF77FFF00BF3A
:104C40004037BD4680BD80B584B000AF78607B68DA
:104C50009B6BFB60F868FBF7AFFF00BF1037BD46EA
:104C600080BD80B586B000AF78607B689B6B7B6150
:104C70007B699B6F3B617B69DB6FFB607B691B68BA
:104C80009B6803F08003802B09D13B69212B06D15F
:104C90007B690022A3F852207869FFF700FF7B6947
:104CA0001B689B6803F04003402B09D1FB68222B53
:104CB00006D17B690022A3F85A207869FFF715FF17
:104CC0007B69D3F8803043F010027B69C3F8802001
:104CD0007869FFF7B3FA00BF1837BD4680BD80B5CD
:104CE00084B000AF78607B689B6BFB60FB68002240
:104CF000A3F85A20FB680022A3F85220F868FFF7B7
:104D00009DFA00BF1037BD4680BD80B588B000AFAA
:104D100078607B681B68FB60FB6853E8003FBB6002
:104D2000BB6823F04003FB617B681B681A46FB6984
:104D3000BB617A617969BA6941E800233B613B69EB
:104D4000002BE6D17B6820229A677B6800229A6656
:104D50007868FBF7F3FE00BF2037BD4680BD00003A
:104D6000014B1868704700BF2000002070B50D4D42
:104D70000D4C641BA4100026A64209D10B4D0C4C0F
:104D800000F04EFC641BA4100026A64205D170BDA5
:104D900055F8043B98470136EEE755F8043B984731
:104DA0000136F2E75C5700085C5700085C570008C2
:104DB000605700080A44914200F1FF3300D1704768
:104DC00010B511F8014B03F8014F9142F9D110BD14
:104DD00002440346934200D1704703F8011BF9E7F0
:104DE0000EB400B59CB01DAB029006906FF0004170
:104DF000094807910491094953F8042B059100686B
:104E0000019302A900F068F8029B00221A701CB0FE
:104E10005DF804EB03B07047200000200802FFFF9C
:104E20002DE9F0478E689E4282460C4690461F460A
:104E300038D88A8912F4906F32D025680969A5EBB9
:104E40000109656905EB450505EBD57501334B4453
:104E50006D109D4238BF1D46530531D5294600F0DF
:104E600039FB064650B90C23CAF80030A38943F039
:104E70004003A3814FF0FF30BDE8F08721694A4627
:104E8000FFF798FFA38923F4906343F08003A38185
:104E9000266165614E44A5EB09052660A5603E4686
:104EA000BE4200D93E4632462068414600F0A8FA8C
:104EB000A36822689B1B3244A36022600020DBE7CA
:104EC0002A4600F061FB06460028E1D121695046E0
:104ED00000F0B0FAC7E700002DE9F04F98468B8943
:104EE0001B069DB007460D4614460ED50B6963B9E7
:104EF000402100F0EFFA2860286120B90C233B60C4
:104F00004FF0FF30D1E040236B6100230993202351
:104F10008DF82930CDF80C803023DFF8A8818DF88A
:104F20002A304FF0010923469A4613F8012B0AB1A3
:104F3000252AF9D1BAEB040B0BD05B462246294651
:104F40003846FFF76DFF013000F0AA80099A5A44F5
:104F500009929AF80030002B00F0A28000234FF055
:104F6000FF32CDE905230AF1010A049307938DF876
:104F700053301A935446052214F8011B5148FBF78D
:104F80005FF9049AD8B9D00644BF20238DF8533076
:104F9000110744BF2B238DF853309AF800302A2B89
:104FA00015D0079A544600204FF00A0C214611F8FC
:104FB000013B303B092B4ED9B0B1079214E0A0EB76
:104FC000080309FA03F313430493A246D2E7039BB1
:104FD000191D1B680391002BBBBF5B4242F002020C
:104FE00007930793B8BF049223782E2B0CD16378D4
:104FF0002A2B35D1039B1A1D1B680392002BB8BFC7
:105000004FF0FF3302340593DFF8C8A02178032264
:105010005046FBF715F940B14023A0EB0A0003FA14
:1050200000F0049B03430134049314F8011B264849
:105030008DF828100622FBF703F9002838D0234BFF
:105040001BBB039B073323F0070308330393099B20
:105050003344099367E70CFB02320C460120A5E7B5
:1050600000230134059319464FF00A0C204610F82E
:10507000012B303A092A03D9002BC5D00591C3E78B
:105080000CFB012104460123F0E703AB00932A4601
:105090000F4B04A93846AFF30080421C0646D6D118
:1050A000AB895B063FF52CAF09981DB0BDE8F08FCA
:1050B00003AB00932A46064B04A9384600F07AF861
:1050C000EBE700BF205700082A5700080000000047
:1050D000214E0008265700082DE9F047164699464C
:1050E0008A680B69DDF820809342B8BF13463360AD
:1050F00091F8432007460C460AB101333360236818
:10510000990642BF336802333360256815F00605FF
:1051100006D104F1190AE36832689B1AAB4226DC17
:1051200094F84320131E226818BF012392062BD443
:1051300004F1430249463846C04701301ED0236877
:10514000E568326803F00603042B08BFAD1AA368B4
:1051500022690CBF25EAE57500259342C4BF9B1A5E
:10516000ED1800261A34B5421AD1002008E00123B8
:10517000524649463846C047013003D14FF0FF3010
:10518000BDE8F0870135C6E7E1185A1C302081F8E8
:105190004300224494F8451082F843100233C7E7D5
:1051A0000123224649463846C0470130E6D0013641
:1051B000D9E700002DE9FF470C469146277E0C9960
:1051C000782F80469A4604F1430207D8622F0AD806
:1051D000002F00F0D880582F00F0A38004F1420681
:1051E00084F842703AE0A7F16303152BF6D801A0CA
:1051F00050F823F04D52000861520008DD510008BC
:10520000DD510008DD510008DD5100086152000841
:10521000DD510008DD510008DD510008DD510008B6
:105220006D530008915200084F530008DD510008EB
:10523000DD5100088F530008DD510008915200082D
:10524000DD510008DD510008575300080B681A1D96
:105250001B680A6004F1420684F842300123A3E08F
:10526000256808682E0600F104030AD505680B605E
:10527000002D03DA2D236D4284F843305E480A2363
:1052800019E015F0400F05680B6018BF2DB2EFE76D
:105290000B682568181D0860280601D51D6802E006
:1052A0006906FBD51D8854486F2F0CBF08230A23BD
:1052B000002184F843106668A660002EA2BF216812
:1052C00021F0040121600DB9002E4DD01646B5FB2A
:1052D000F3F103FB1157C75D06F8017D2F46BB4272
:1052E0000D46F4D9082B0BD12368DF0708D52369B5
:1052F00061689942DEBF302306F8013C06F1FF36B3
:10530000921B2261CDF800A04B4603AA21464046DD
:10531000FFF7E2FE01304CD14FF0FF3004B0BDE8A2
:10532000F087354884F8457023680E681F0656F8E4
:10533000045B0E6014D5D90744BF43F020032360FB
:105340001DB9236823F0200323601023B0E72368EE
:1053500043F0200323607823284884F84530E3E7AE
:105360005E0648BFADB2E6E71646BBE70B682668A7
:1053700060691D1D0D6035061B6801D5186002E0CF
:105380007106FBD51880002323611646BAE70B6827
:105390001A1D0A601E68626800213046FAF750FF45
:1053A00008B1801B606063682361002384F8433088
:1053B000A8E72369324649464046D0470130ABD082
:1053C00023689B0713D4E068039B9842B8BF184634
:1053D000A4E70123324649464046D04701309BD0DE
:1053E0000135E36803995B1AAB42F2DCEBE7002579
:1053F00004F11906F5E700BF3157000842570008CD
:10540000884210B501EB020402D98442234607D832
:10541000431EA14208D011F8012B03F8012FF8E731
:10542000024401468A4200D110BD13F8014D02F832
:10543000014DF7E737B5002948D051F8043C0190F9
:10544000002BA1F10404B8BFE41800F0D3F8204AFF
:1054500001981368154633B96360146003B0BDE862
:10546000304000F0CDB8A3420BD9216862189342B6
:1054700004BF1A685B68636004BF521822602C6026
:10548000ECE71A465B680BB1A342FAD911685518CC
:10549000A5420BD1246821445418A3421160DDD1E8
:1054A0001C685B68536021441160D7E702D90C2364
:1054B0000360D3E7256861198B4204BF19685B68F4
:1054C000636004BF491921605460C7E703B030BD71
:1054D000A8000020F8B5CD1C25F0030508350C2DDB
:1054E00038BF0C25002D064601DBA94203D90C2349
:1054F00033600020F8BD00F07DF821490A681446A9
:105500009CB9204F3B6823B92146304600F062F831
:1055100038602946304600F05DF8431C23D10C2347
:105520003360304600F06CF8E3E723685B1B17D468
:105530000B2B03D923601C44256004E06368A2425E
:105540000CBF0B605360304600F05AF804F10B00BA
:10555000231D20F00700C21ACCD01B1AA350C9E7A4
:1055600022466468CCE7C41C24F00304A042E3D0C4
:10557000211A304600F02EF80130DDD1CFE700BF10
:10558000A8000020AC000020F8B5074614460E46DF
:1055900021B9BDE8F8401146FFF79CBF22B9FFF7DB
:1055A00049FF25462846F8BD00F030F8A0420FD24A
:1055B00021463846FFF78EFF05460028F2D03146D7
:1055C0002246FFF7F7FB31463846FFF733FFE9E79E
:1055D0003546E7E738B5064D0023044608462B60FC
:1055E000FBF702FD431C02D12B6803B1236038BDD9
:1055F00088120020014800F011B800BF901200206E
:10560000014800F00CB800BF9012002051F8043C93
:10561000181F002BBCBF0B58C0187047704770474D
:10562000F8B500BFF8BC08BC9E467047F8B500BF8F
:08563000F8BC08BC9E4670475F
:105638002568753A000000004C6F6E6720626F6144
:105648007420686F6C7973746F6E6520706972610D
:105658007465206C6F67206472697665722068755E
:105668006C6B206E69707065726B696E20636F6712
:105678002E2042756363616E656572206D65206CCE
:1056880061737320706F6F70206465636B20737033
:1056980079676C617373206D61726F6F6E206A69D0
:1056A80062207370696B652E20436F6D6561626F50
:1056B8007574206D61726F6F6E20736B7973616999
:1056C8006C20436F72736169722062696C67652030
:1056D800776174657220417272206C6F6E67206307
:1056E8006C6F74686573207472616E736F6D2E0DC4
:1056F8000A00000007050A00000000000000000082
:10570800010203040607080900000000010203045F
:105718000006101600061016232D302B2000686C8A
:105728004C006566674546470030313233343536BC
:1057380037383941424344454600303132333435F5
:0C57480036373839616263646566000022
:08575400BCABFF7F0100000067
:04575C00250200081A
:04576000010200083A
:10576400496E696369616E646F2055736172743A3E
:10577400200D0A000024F4001000000001000000C5
:1057840024000020000000000000000000000000D1
:105794000000000000000000000000000000000005
:1057A40000000000000000000000000000000000F5
:1057B40000000000000000000000000000000000E5
:1057C40000000000000000000000000000000000D5
:1057D40000000000000000000000000000000000C5
:0457E40000000000C1
:040000050800107966
:00000001FF
