:020000040800F2
:100000000000012059090008390800083F080008CD
:10001000450800084B0800085108000800000000CF
:100020000000000000000000000000005708000869
:100030006508000800000000730800088108000837
:10004000A9090008A9090008A9090008A9090008C8
:10005000A9090008A9090008A9090008A9090008B8
:10006000A9090008A9090008A90900088D080008C5
:10007000A9090008A9090008A9090008A909000898
:10008000A9090008A9090008A1080008A909000891
:10009000A9090008A9090008A9090008A909000878
:1000A000A9090008A9090008A9090008A909000868
:1000B000A9090008A9090008A9090008A909000858
:1000C000A9090008A9090008A9090008A909000848
:1000D000A9090008A9090008B5080008A90900082D
:1000E000A9090008A9090008A9090008A909000828
:1000F000A9090008A9090008A9090008A909000818
:10010000A90900080000000000000000A90900087B
:10011000A9090008A9090008A9090008A9090008F7
:10012000A9090008A9090008A9090008A9090008E7
:10013000A9090008A909000800000000000000004B
:10014000A9090008A9090008A90900080000000081
:10015000000000000000000000000000000000009F
:10016000A9090008A9090008A9090008A9090008A7
:10017000A9090008A9090008A9090008A909000897
:10018000A9090008A90900080000000000000000FB
:04019000A9090008B1
:1001A00010B5054C237833B9044B13B10448AFF3B1
:1001B00000800123237010BD7000002000000000AB
:1001C000705D000808B5034B1BB103490348AFF34A
:1001D000008008BD0000000074000020705D000871
:1001E00001F0FF01102A2BDB10F0070F08D010F8E8
:1001F000013B013A8B422DD010F0070F42B3F6D1EC
:10020000F0B441EA012141EA014122F007047FF004
:1002100000070023F0E80256083C85EA010586EA5B
:10022000010685FA47F5A3FA87F586FA47F6A5FA97
:1002300087F68EB9EED1F0BC01F0FF0102F00702A3
:1002400032B110F8013B013A83EA010313B1F8D14E
:100250000020704701387047002D06BF354603382F
:10026000073815F0010F07D1013015F4807F02BF68
:10027000013015F4C03F0130F0BC0138704700BFB9
:1002800080B596B000AF00F091FB00F043F800F0AD
:1002900061F900F011F900F03FF900F09DF800233A
:1002A000A7F8563001221649164800F017FE4FF401
:1002B0007A7000F0E1FBB7F856300133A7F85630FA
:1002C00020214FF0904002F05DFD4FF4FA7000F0F5
:1002D000D3FBB7F85630142B02D10A4800F01AFFAE
:1002E000B7F85620084B1B889BB2381D074905F00C
:1002F00011F9391D0A231322054804F015F9DAE72C
:10030000CC010020A40000208C000020885D0008A3
:100310004801002080B5A6B000AF07F17003282285
:100320000021184605F0EEF807F15C0300221A6080
:100330005A609A60DA601A613B1D58220021184603
:1003400005F0E0F802233B670123FB671023C7F8A1
:1003500080300223C7F888304FF40043C7F88C3050
:100360004FF4E013C7F890300023C7F8943007F13A
:100370007003184602F020FD0346002B01D000F068
:1003800077F90F23FB6502233B6600237B664FF45E
:10039000E063BB664FF48063FB6607F15C030221F8
:1003A000184603F01FFC0346002B01D000F060F953
:1003B00082237B6000233B614FF4D873FB623B1DBB
:1003C000184603F045FE0346002B01D000F050F91B
:1003D00000BF9837BD4680BD80B58AB000AF07F139
:1003E0001C0300221A605A609A603B1D00221A60AA
:1003F0005A609A60DA601A615A612E4B4FF0A0423F
:100400001A602C4B00225A602A4B00229A60294B1A
:1004100000221A61274B01225A76264B002283F8CC
:100420002020244B0022DA62224B01229A62214BC7
:100430000022DA601F4B0122DA611E4B012283F891
:1004400030201C4B04225A611A4B00221A76194B99
:1004500000225A63174800F047FB0346002B01D0E7
:1004600000F006F90023FB6107F11C03194611484F
:1004700001F0D2FC0346002B01D000F0F9F8012373
:100480007B600123BB6000233B610623FB600023EC
:100490007B610023BB613B1D1946064801F0D0F982
:1004A0000346002B01D000F0E3F800BF2837BD461B
:1004B00080BD00BFA400002080B500AF144B154ADA
:1004C0001A60134B4FF416425A60114B00229A6087
:1004D0000F4B0022DA600E4B00221A610C4B0C22EB
:1004E0005A610B4B00229A61094B0022DA61084BDA
:1004F00000221A62064B00225A62054803F0C6FF2A
:100500000346002B01D000F0B3F800BF80BD00BF50
:10051000480100200044004080B582B000AF0C4B81
:100520005B690B4A43F001035361094B5B6903F0BC
:1005300001037B607B68002200210B2002F01FF882
:100540000B2002F038F800BF0837BD4680BD00BF61
:100550000010024080B58AB000AF07F114030022FA
:100560001A605A609A60DA601A612B4B5B692A4AFA
:1005700043F400235361284B5B6903F400233B6180
:100580003B69254B5B69244A43F480035361224B4A
:100590005B6903F48003FB60FB681F4B5B691E4AC9
:1005A00043F4003353611C4B5B6903F40033BB60BD
:1005B000BB68194B5B69184A43F480235361164B9F
:1005C0005B6903F480237B607B68002220214FF06D
:1005D000904002F0BFFB4FF400537B614FF40413D3
:1005E000BB610023FB6107F1140319460B4802F0BD
:1005F00027FA20237B610123BB610023FB610023D9
:100600003B6207F1140319464FF0904002F018FACC
:1006100000BF2837BD4680BD0010024000080048DA
:1006200080B483B000AF78600B4B1B889BB2013362
:100630009AB2094B1A80084B1B889BB248F69F421E
:10064000934202D9044B00221A8000BF0C37BD46EA
:100650005DF8047B704700BF8C00002080B483B03D
:1006600000AF786000BF0C37BD465DF8047B704773
:1006700080B400AF72B600BFFEE7000080B582B064
:1006800000AF0F4B9B690E4A43F0010393610C4B83
:100690009B6903F001037B607B68094BDB69084AB7
:1006A00043F08053D361064BDB6903F080533B601A
:1006B0003B68072001F058FF00BF0837BD4680BDEA
:1006C0000010024080B58AB000AF786007F11403D3
:1006D00000221A605A609A60DA601A617B681B68AF
:1006E000B3F1A04F54D12C4B5B692B4A43F080539C
:1006F0005361294B5B6903F080533B613B69264B97
:100700005B69254A43F400335361234B5B6903F46F
:100710000033FB60FB6801237B610323BB61002383
:10072000FB6107F1140319464FF0904002F088F97D
:100730001A4B1B4A1A60194B00225A60174B0022B1
:100740009A60164B8022DA60144B4FF480721A6163
:10075000124B4FF480625A61104B20229A610F4B6A
:100760000022DA610D4801F040FF0346002B01D062
:10077000FFF77EFF7B68094A9A63084A7B685362E9
:1007800000220021122001F0FAFE122001F013FFD6
:1007900000BF2837BD4680BD00100240F800002091
:1007A0000800024080B58AB000AF786007F11403FA
:1007B00000221A605A609A60DA601A617B681B68CE
:1007C0001B4A934230D11B4BDB691A4A43F4003376
:1007D000D361184BDB6903F400333B613B69154B74
:1007E0005B69144A43F400335361124B5B6903F4B1
:1007F0000033FB60FB680C237B610223BB61002399
:10080000FB6100233B6207237B6207F11403194657
:100810004FF0904002F014F900220021262001F050
:10082000AEFE262001F0C7FE00BF2837BD4680BDC2
:10083000004400400010024080B400AFFEE780B4E6
:1008400000AFFEE780B400AFFEE780B400AFFEE784
:1008500080B400AFFEE780B400AF00BFBD465DF8D6
:10086000047B704780B400AF00BFBD465DF8047BD9
:10087000704780B400AF00BFBD465DF8047B704791
:1008800080B500AF00F0D8F800BF80BD80B500AFE4
:10089000024801F0C7FF00BF80BD00BFF800002084
:1008A00080B500AF024800F097FC00BF80BD00BFDC
:1008B000A400002080B500AF024803F0C9FE00BFCD
:1008C00080BD00BF4801002080B586B000AF7860D1
:1008D000144A154BD31A7B617B693B61134B1B6830
:1008E000002B02D1114B124A1A60104B1A687B6818
:1008F00013443A699A4207D204F0DAFD03460C2207
:100900001A604FF0FF3309E0084B1B68FB60074B90
:100910001A687B681344054A1360FB681846183749
:10092000BD4680BD000001200004000090000020B2
:10093000F001002080B400AF064BD3F88830054AA0
:1009400043F47003C2F8883000BFBD465DF8047BF5
:10095000704700BF00ED00E0DFF834D00D480E49CD
:100960000E4A002302E0D458C4500433C4188C4209
:10097000F9D30B4A0B4C002301E013600432A2426E
:10098000FBD3FFF7D7FF04F099FDFFF779FCFEE7F3
:10099000000001200000002070000020105E000810
:1009A00070000020EC010020FEE7000080B500AFE1
:1009B000084B1B68074A43F010031360032001F043
:1009C000D3FD002000F008F8FFF758FE002318467A
:1009D00080BD00BF0020024080B582B000AF7860CB
:1009E000124B1A68124B1B7819464FF47A73B3FBFB
:1009F000F1F3B2FBF3F3184601F0EBFD0346002BD5
:100A000001D001230EE07B680F2B0AD80022796801
:100A10004FF0FF3001F0B3FD064A7B6813600023FE
:100A200000E0012318460837BD4680BD00000020C5
:100A3000080000200400002080B400AF064B1B78A3
:100A40001A46064B1B681344044A136000BFBD4698
:100A50005DF8047B704700BF08000020D80100202B
:100A600080B400AF034B1B681846BD465DF8047B9D
:100A7000704700BFD801002080B584B000AF786017
:100A8000FFF7EEFFB8607B68FB60FB68B3F1FF3FE8
:100A900005D00A4B1B781A46FB681344FB6000BF65
:100AA000FFF7DEFF0246BB68D31AFA689A42F7D80E
:100AB00000BF00BF1037BD4680BD00BF080000204A
:100AC00080B483B000AF786000BF0C37BD465DF8DE
:100AD000047B704780B483B000AF786000BF0C37F0
:100AE000BD465DF8047B704780B59AB000AF786072
:100AF000002387F8673000233B660023BB607B68D8
:100B0000002B01D10123E3E17B681B69002B7B688B
:100B10001B6C03F01003002B76D17B681B6C002B41
:100B200052D17B6800225A647B680022DA647B68B9
:100B300000229A647B68002283F83C207868FFF7E3
:100B4000C1FD7B681B689B6803F08053002B3BD181
:100B5000786801F01DFB034687F867307B681B6CE3
:100B600003F01003002B2FD197F86730002B2BD107
:100B70007B681B6C23F4885323F0020343F00202CA
:100B80007B681A647B681B689A687B681B6822F024
:100B900040529A607B681B689A687B681B6842F0C9
:100BA00080529A60924B1B68924AA2FB03239A0CD4
:100BB00013469B0013445B00BB6002E0BB68013B33
:100BC000BB60BB68002BF9D17B681B689B6803F096
:100BD0008053002B07D07B681B689B6803F0005391
:100BE000B3F1005F10D17B681B6C23F0120343F05C
:100BF00010027B681A647B685B6C43F001027B68BF
:100C00005A64012387F867307B681B6C03F010037C
:100C1000002B40F0508197F86730002B40F04B815B
:100C20007B681B689B6803F00403002B40F0438142
:100C30007B681B6C23F4817343F002027B681A64A7
:100C40007B681B68B3F1A04F04D07B681B686A4ABD
:100C5000934201D1694B00E0694BFB657B681B68DF
:100C6000B3F1A04F02D1644BFB601AE07B681B68B4
:100C7000614A934203D14FF0A043FB6011E07B68CF
:100C80001B68604A934202D15F4BFB6009E07B68BE
:100C90001B685D4A934202D15A4BFB6001E000237E
:100CA000FB607B681B689B6803F00303012B08D182
:100CB0007B681B681B6803F00103012B01D1012332
:100CC00000E00023002B1CD1FB68002B10D0FB6838
:100CD0009B6803F00303012B07D1FB681B6803F03B
:100CE0000103012B01D1012300E00023002B08D1D7
:100CF000FB6D9B6823F440327B685B681A43FB6D95
:100D00009A607B685B7E5B037A68526B012A02D033
:100D10004FF4805200E000221A437B68DB681A43DC
:100D20007B689B6813433A6E13433B667B6893F87A
:100D30002030012B1BD17B685B7E002B09D17B68A7
:100D40005B6A013B5A043B6E134343F480333B66BA
:100D50000DE07B681B6C23F0220343F020027B68CC
:100D60001A647B685B6C43F001027B685A647B68A1
:100D70009B6A012B54D07B681B68224A934204D0A3
:100D80007B681B68204A934240D17B689B6AB3F51D
:100D9000307F2AD07B689B6AB3F5807F22D07B6846
:100DA0009B6AB3F5E07F1AD07B689B6AB3F58A5FD4
:100DB00012D07B689B6AB3F5845F0AD07B689B6A1C
:100DC000B3F5865F02D07B689B6A23E04FF4C07363
:100DD00020E04FF4A0731DE04FF470731AE04FF45D
:100DE000807317E04FF4307314E04FF4E07311E0B8
:100DF0000000002083DE1B43000100500003005070
:100E00000007005000040050000500507B689B6AFA
:100E100023F480537A68D26A13433A6E13433B66D5
:100E20007B681B689B6803F00C03002B14D17B6864
:100E30001B68DB687A68126823F4804323F002039E
:100E4000D3607B681B7E9A037B6893F830305B002D
:100E500013433A6E13433B667B681B68DA681E4B8C
:100E600013407A681268396E0B43D3607B681B6944
:100E7000012B0CD17B681B681B6B23F00F017B6877
:100E8000DB695A1E7B681B680A431A6307E07B68AC
:100E90001B681A6B7B681B6822F00F021A637B6861
:100EA00000225A647B681B6C23F0030343F00102A9
:100EB0007B681A640AE07B681B6C23F0120343F022
:100EC00010027B681A64012387F8673097F867304F
:100ED00018466837BD4680BD07C0F0FF80B586B0B4
:100EE00000AFF860B9607A600023FB75FB681B688F
:100EF0009B6803F00403002B40F0F780FB6893F835
:100F00003C30012B01D10223F2E0FB68012283F87F
:100F10003C20FB681B68B3F1A04F04D0FB681B6842
:100F2000754A934209D1754B9B6803F01F03002B50
:100F30000CBF01230023DBB208E0714B9B6803F078
:100F40001F03002B0CBF01230023DBB2002B00F09A
:100F5000C580F86801F0B8F80346FB75FB7D002BEF
:100F600040F0B780FB681B6C23F4706323F001032F
:100F700043F48072FB681A64FB681B68B3F1A04FEE
:100F800004D0FB681B685C4A934206D15B4B9B68AC
:100F900003F01F03002B10D005E0594B9B6803F0B2
:100FA0001F03002B09D0FB681B68B3F1A04F04D0CE
:100FB000FB681B68534A934215D1FB681B6C23F4F2
:100FC0008012FB681A64FB681B68DB6803F000731F
:100FD000002B36D0FB681B6C23F4405343F4805243
:100FE000FB681A642DE0FB681B6C43F48012FB68FD
:100FF0001A64FB681B68B3F1A04F04D0FB681B6840
:101000003D4A93420AD14FF0A043DB6803F00073DE
:10101000002B14BF01230023DBB208E0394BDB684F
:1010200003F00073002B14BF01230023DBB2002B5D
:1010300007D0FB681B6C23F4405343F48052FB68D9
:101040001A64FB681B6C03F48053B3F5805F06D110
:10105000FB685B6C23F00602FB685A6402E0FB68E5
:1010600000225A64FB68002283F83C20FB689B6BDB
:10107000254A9A62FB689B6B244ADA62FB689B6B89
:10108000234A1A63FB681B681C221A60FB681B68F2
:101090005A68FB681B6842F010025A60FB681B68C4
:1010A000DA68FB681B6842F00102DA60FB68986B43
:1010B000FB681B6840331946BA687B6801F0DCFAAC
:1010C000FB681B689A68FB681B6842F004029A6020
:1010D0000DE0FB68002283F83C2008E00123FB754B
:1010E000FB68002283F83C2001E00223FB75FB7DB6
:1010F00018461837BD4680BD00010050000300505F
:101100000007005000040050FD1F00087720000871
:101110009320000880B584B000AF78600023FB7393
:101120007B6893F83C30012B01D1022350E07B68AF
:10113000012283F83C206C21786801F08FF8034687
:10114000FB73FB7B002B3ED17B681B68DA687B68F6
:101150001B6822F00102DA607B689B6B93F82130F8
:10116000022B0FD17B689B6B184601F0E4FA034613
:10117000FB73FB7B002B05D07B681B6C43F04002AC
:101180007B681A647B681B685A687B681B6822F05E
:1011900010025A60FB7B002B05D1786800F0F8FF45
:1011A0000346FB7302E0786800F0F2FFFB7B002B44
:1011B00009D17B681B6C23F4885323F0010343F0AF
:1011C00001027B681A647B68002283F83C20FB7B69
:1011D00018461037BD4680BD80B586B000AF786038
:1011E00000237B6100233B610023FB607B681B685D
:1011F0001B6803F00403042B06D17B681B685B6843
:1012000003F00403042B0FD07B681B681B6803F0FA
:101210000803082B40F0C0807B681B685B6803F004
:101220000803082B40F0B8807B681B6C03F01003A8
:10123000002B05D17B681B6C43F400727B681A6439
:101240007B681B68B3F1A04F04D07B681B68954A8C
:10125000934206D1944B9B6803F01F03002B3ED0B2
:1012600005E0924B9B6803F01F03002B37D07B688F
:101270001B68B3F1A04F04D07B681B68894A934276
:1012800006D1894B9B6803F01F03052B27D005E08F
:10129000864B9B6803F01F03052B20D07B681B68DF
:1012A000B3F1A04F04D07B681B687E4A934206D1FD
:1012B0007D4B9B6803F01F03092B10D005E07B4B8F
:1012C0009B6803F01F03092B09D07B681B68B3F1EF
:1012D000A04F04D07B681B68754A934204D17B6899
:1012E0001B68DB683B610FE07B681B68B3F1A04FB4
:1012F00004D07B681B686B4A934202D14FF0A04335
:1013000000E06B4BDB683B617B681B68DB6803F4C8
:101310004063002B39D13B6903F40053002B34D1D7
:101320007B681B681B6803F00803082B2DD17B68C2
:101330001B689B6803F00403002B1AD17B681B68B1
:101340005A687B681B6822F00C025A607B681B6C31
:1013500023F480727B681A647B681B6C03F48053EF
:10136000002B12D17B681B6C43F001027B681A646E
:101370000BE07B681B6C43F010027B681A647B688F
:101380005B6C43F001027B685A647868FFF748F9A8
:101390007B681B680C221A607B681B681B6803F063
:1013A0002003202B06D17B681B685B6803F02003B9
:1013B000202B0FD07B681B681B6803F04003402B79
:1013C00040F03C817B681B685B6803F04003402B66
:1013D00040F034817B681B6C43F400527B681A64D4
:1013E0007B681B68B3F1A04F04D07B681B682D4A53
:1013F000934206D12C4B9B6803F01F03002B3ED079
:1014000005E02A4B9B6803F01F03002B37D07B6855
:101410001B68B3F1A04F04D07B681B68214A93423C
:1014200006D1214B9B6803F01F03052B27D005E055
:101430001E4B9B6803F01F03052B20D07B681B68A5
:10144000B3F1A04F04D07B681B68164A934206D1C3
:10145000154B9B6803F01F03092B10D005E0134BBD
:101460009B6803F01F03092B09D07B681B68B3F14D
:10147000A04F04D07B681B680D4A934204D17B685F
:101480001B68DB683B6118E07B681B68B3F1A04F09
:1014900004D07B681B68034A93420BD14FF0A043F2
:1014A00009E000BF00010050000300500007005099
:1014B000000400509D4BDB683B617B681B68DB6C64
:1014C00003F0C003002B40F0B2803B6903F00073CF
:1014D000002B0DD07B681B68DB6803F44063002B96
:1014E00040F0A5803B6903F40053002B40F09F803F
:1014F0007B681B681B6803F04003402B40F097801B
:101500007B681B68B3F1A04F04D07B681B68884AD6
:10151000934206D1874B9B6803F01F03002B3ED0FC
:1015200005E0854B9B6803F01F03002B37D07B68D9
:101530001B68B3F1A04F04D07B681B687C4A9342C0
:1015400006D17C4B9B6803F01F03062B27D005E0D8
:10155000794B9B6803F01F03062B20D07B681B6828
:10156000B3F1A04F04D07B681B68714A934206D147
:10157000704B9B6803F01F03072B10D005E06E4BE8
:101580009B6803F01F03072B09D07B681B68B3F12E
:10159000A04F04D07B681B68644A934204D17B68E7
:1015A0001B68DB68FB600FE07B681B68B3F1A04F32
:1015B00004D07B681B685E4A934202D14FF0A0437F
:1015C00000E05A4BDB68FB60FB6803F40013002B60
:1015D0002DD17B681B689B6803F00803002B1AD190
:1015E0007B681B685A687B681B6822F060025A603F
:1015F0007B681B6C23F480527B681A647B681B6CCD
:1016000003F48073002B12D17B681B6C43F0010242
:101610007B681A640BE07B681B6C43F010027B68EC
:101620001A647B685B6C43F001027B685A647868DB
:1016300000F0DEF87B681B6860221A607B681B681C
:101640001B6803F08003802B13D17B681B685B68E9
:1016500003F08003802B0CD17B681B6C43F4803239
:101660007B681A647868FFF72BFA7B681B68802216
:101670001A607B681B681B6803F48073B3F5807F76
:1016800015D17B681B685B6803F48073B3F5807FBA
:101690000DD17B681B6C43F400327B681A64786858
:1016A00000F0BAF87B681B684FF480721A607B68A0
:1016B0001B681B6803F40073B3F5007F15D17B68CA
:1016C0001B685B6803F40073B3F5007F0DD17B6882
:1016D0001B6C43F480227B681A64786800F0A6F8DB
:1016E0007B681B684FF400721A607B681B681B687C
:1016F00003F01003102B51D17B681B685B6803F06B
:101700001003102B4AD17B685B6B012B02D10123A4
:101710007B612DE07B681B68B3F1A04F04D07B6830
:101720001B68034A934209D1024B08E000040050B1
:101730000001005000030050000700502B4BBB601D
:10174000BB689B6803F01F03002B09D17B681B68F3
:10175000DB6803F00103012B0AD101237B6107E061
:10176000BB689B6803F44043002B01D001237B61DD
:101770007B69012B0ED17B681B6C43F480627B6814
:101780001A647B685B6C43F002027B685A64786879
:10179000FFF7A0F97B681B6810221A607B681B6842
:1017A0001B6803F48063B3F5806F1BD17B681B68F3
:1017B0005B6803F48063B3F5806F13D17B681B6CA7
:1017C00043F480427B681A647B685B6C43F00802D8
:1017D0007B685A647B681B684FF480621A60786883
:1017E00000F010F800BF1837BD4680BD000700505C
:1017F00080B483B000AF786000BF0C37BD465DF8A1
:10180000047B704780B483B000AF786000BF0C37B2
:10181000BD465DF8047B704780B483B000AF78604C
:1018200000BF0C37BD465DF8047B704780B483B0C1
:1018300000AF786000BF0C37BD465DF8047B704791
:1018400080B49BB000AF78603960002387F86730C0
:101850000023BB607B6893F83C30012B01D102234D
:10186000CBE27B68012283F83C207B681B689B6885
:1018700003F00403002B40F0AF823B685B68042B4D
:101880001CD87B681B68196B3B685A6813465B0061
:1018900013445B001A461F239340DB4319403B6807
:1018A00018683B685A6813465B0013445B0000FAF3
:1018B00003F27B681B680A431A6363E03B685B685A
:1018C000092B1ED87B681B68596B3B685A68134606
:1018D0005B0013445B001E3B1F2202FA03F3DB4351
:1018E00019403B6818683B685A6813465B0013440C
:1018F0005B001E3B00FA03F27B681B680A435A63D5
:1019000040E03B685B680E2B1ED87B681B68996BB8
:101910003B685A6813465B0013445B003C3B1F2244
:1019200002FA03F3DB4319403B6818683B685A68C6
:1019300013465B0013445B003C3B00FA03F27B68F8
:101940001B680A439A631DE07B681B68D96B3B6880
:101950005A6813465B0013445B005A3B1F2202FA8D
:1019600003F3DB4319403B6818683B685A68134629
:101970005B0013445B005A3B00FA03F27B681B6870
:101980000A43DA637B681B689B6803F00C03002B37
:1019900040F0E5803B681B68092B1CD97B681B68FD
:1019A00099693B681A6813465B0013441E3B072283
:1019B00002FA03F3DB4319403B6898683B681A68F6
:1019C00013465B0013441E3B00FA03F27B681B685E
:1019D0000A439A6119E07B681B6859693B681A6879
:1019E00013465B001344072202FA03F3DB4319405A
:1019F0003B6898683B681A6813465B00134400FA1A
:101A000003F27B681B680A435A613B685A697B682A
:101A10001B68DB68DB0803F003035B0002FA03F3D7
:101A20003B663B681B69013B032B4FD801A252F870
:101A300023F000BF451A0008671A0008891A000839
:101A4000AB1A00087B681B681A6E9F4B13403A68FC
:101A5000126891063A6E0A431A437B681B6842F08B
:101A600000421A667EE07B681B685A6E964B1340F4
:101A70003A68126891063A6E0A431A437B681B68FB
:101A800042F000425A666DE07B681B689A6E8E4B8E
:101A900013403A68126891063A6E0A431A437B680B
:101AA0001B6842F000429A665CE07B681B68DA6E55
:101AB000854B13403A68126891063A6E0A431A43FE
:101AC0007B681B6842F00042DA664BE07B681B686B
:101AD0001B6E03F0F8423B681B689B069A4207D1D5
:101AE0007B681B681A6E7B681B6822F000421A66CE
:101AF0007B681B685B6E03F0F8423B681B689B06C3
:101B00009A4207D17B681B685A6E7B681B6822F07B
:101B100000425A667B681B689B6E03F0F8423B6884
:101B20001B689B069A4207D17B681B689A6E7B688C
:101B30001B6822F000429A667B681B68DB6E03F02C
:101B4000F8423B681B689B069A420AD17B681B6877
:101B5000DA6E7B681B6822F00042DA6601E000BFA3
:101B600000E000BF7B681B689B6803F00303012B48
:101B700008D17B681B681B6803F00103012B01D1AE
:101B8000012300E00023002B40F031813B68DB683B
:101B9000012B0FD07B681B68D3F8B0103B681B6823
:101BA000012202FA03F3DA437B681B680A40C3F898
:101BB000B02049E07B681B68D3F8B0103B681B6815
:101BC00001229A407B681B680A43C3F8B0203B6837
:101BD0001B68092B1CD97B681B6899693B681A68CC
:101BE00013465B0013441B3B072202FA03F3DB435B
:101BF00019403B6898683B681A6813465B001344B9
:101C00001B3B00FA03F27B681B680A439A611BE0E6
:101C10007B681B6859693B681B685A1C13465B004C
:101C20001344072202FA03F3DB4319403B68986828
:101C30003B681B685A1C13465B00134400FA03F20E
:101C40007B681B680A435A617B681B68B3F1A04F2D
:101C500004D07B681B681D4A934201D11C4B00E0F5
:101C60001C4BFB653B681B68102B05D1FB6D9B680B
:101C700003F40003002B15D03B681B68112B05D122
:101C8000FB6D9B6803F08073002B0BD03B681B68D7
:101C9000122B40F0AC80FB6D9B6803F48003002B9B
:101CA00040F0A5807B681B68B3F1A04F02D1074BC1
:101CB000FB6023E07B681B68044A93420CD14FF021
:101CC000A043FB601AE000BF00F0FF83000100505A
:101CD00000030050000700507B681B684A4A93428B
:101CE00002D14A4BFB6009E07B681B68474A93427C
:101CF00002D1454BFB6001E00023FB607B681B6861
:101D00009B6803F00303012B08D17B681B681B68E9
:101D100003F00103012B01D1012300E00023002B7C
:101D200050D1FB68002B10D0FB689B6803F00303C5
:101D3000012B07D1FB681B6803F00103012B01D1C4
:101D4000012300E00023002B3CD13B681B68102BD3
:101D50001DD17B681B68B3F1A04F18D1FB6D9B6848
:101D600043F40002FB6D9A60294B1B68294AA2FBD1
:101D700003239A0C13469B0013445B00BB6002E0F4
:101D8000BB68013BBB60BB68002BF9D12EE03B6810
:101D90001B68112B0BD17B681B68B3F1A04F06D1D8
:101DA000FB6D9B6843F08072FB6D9A601EE03B68A0
:101DB0001B68122B1AD1FB6D9B6843F48002FB6DEC
:101DC0009A6013E07B681B6C43F020027B681A6406
:101DD000012387F867300AE07B681B6C43F0200220
:101DE0007B681A64012387F8673000E000BF7B68D6
:101DF000002283F83C2097F8673018466C37BD46C0
:101E00005DF8047B704700BF0004005000050050DF
:101E10000000002083DE1B4380B499B000AF7860DF
:101E20003960002387F85F307B681B68B3F1A04FEF
:101E300002D16D4BBB601AE07B681B686A4A934213
:101E400003D14FF0A043BB6011E07B681B68674A79
:101E5000934202D1664BBB6009E07B681B68644A11
:101E6000934202D1614BBB6001E00023BB60BB68C1
:101E7000002B01D10123B0E07B6893F83C30012BAB
:101E800001D10223A9E07B68012283F83C207B6812
:101E90001B689B6803F00403002B40F08D80BB6837
:101EA0009B6803F00403002B40F086807B681B686E
:101EB000B3F1A04F04D07B681B684B4A934201D119
:101EC0004C4B00E04C4BBB653B681B68002B40D083
:101ED000BB6D9B6823F460423B6859687B6893F84C
:101EE00030305B030B431A43BB6D9A607B681B6801
:101EF0009B6803F00303012B08D17B681B681B68F8
:101F000003F00103012B01D1012300E00023002B8A
:101F10005CD1BB689B6803F00303012B07D1BB684E
:101F20001B6803F00103012B01D1012300E0002312
:101F3000002B4BD1BB6D9B6823F4716323F00F031F
:101F40003A6811683A6892680A431A43BB6D9A600E
:101F50003CE0BB6D9B6823F46042BB6D9A607B687C
:101F60001B689B6803F00303012B08D17B681B6887
:101F70001B6803F00103012B01D1012300E00023C2
:101F8000002B23D1BB689B6803F00303012B07D10F
:101F9000BB681B6803F00103012B01D1012300E0A2
:101FA0000023002B12D1BB6D9B6823F4716323F0D7
:101FB0000F03BA6D936009E07B681B6C43F020024D
:101FC0007B681A64012387F85F3000E000BF7B68FC
:101FD000002283F83C2097F85F3018466437BD46EE
:101FE0005DF8047B704700BF000100500004005002
:101FF00000050050000300500007005080B584B079
:1020000000AF78607B685B6AFB60FB681B6C03F069
:102010005003002B26D1FB681B6C43F40072FB6855
:102020001A64FB681B68DB6803F44063002B15D15E
:10203000FB685B7E002B11D1FB681B6C23F4807264
:10204000FB681A64FB681B6C03F48053002B05D1FA
:10205000FB681B6C43F00102FB681A64F868FEF72A
:10206000DFFA04E0FB689B6B1B6B7868984700BF46
:102070001037BD4680BD80B584B000AF78607B6806
:102080005B6AFB60F868FEF7E9FA00BF1037BD46EF
:1020900080BD80B584B000AF78607B685B6AFB6010
:1020A000FB681B6C43F04002FB681A64FB685B6CC6
:1020B00043F00402FB685A64F868FEF70BFD00BFAA
:1020C0001037BD4680BD000080B584B000AF786099
:1020D0000023FB607B681B689B6803F00303012BF4
:1020E00008D17B681B681B6803F00103012B01D139
:1020F000012300E00023002B43D17B681B689A6812
:10210000224B1340002B0DD07B681B6C43F0100258
:102110007B681A647B685B6C43F001027B685A64DD
:1021200001232FE07B681B689A687B681B6842F07C
:1021300001029A60FEF794FCF8601BE0FEF790FC49
:102140000246FB68D31A022B14D97B681B681B68F4
:1021500003F00103012B0DD07B681B6C43F01002D0
:102160007B681A647B685B6C43F001027B685A648D
:10217000012307E07B681B681B6803F00103012B48
:10218000DCD1002318461037BD4680BD3F000080DB
:1021900080B584B000AF78600023FB607B681B686B
:1021A0009B6803F00303012B08D17B681B681B6845
:1021B00003F00103012B01D1012300E00023002BD8
:1021C00047D07B681B689B6803F00D03012B0FD180
:1021D0007B681B689A687B681B6842F002029A6001
:1021E0007B681B6803221A60FEF73AFCF86029E05E
:1021F0007B681B6C43F010027B681A647B685B6C25
:1022000043F001027B685A64012323E0FEF728FCB7
:102210000246FB68D31A022B14D97B681B689B68A3
:1022200003F00103012B0DD17B681B6C43F01002FE
:102230007B681A647B685B6C43F001027B685A64BC
:10224000012307E07B681B689B6803F00103012BF7
:10225000DCD0002318461037BD4680BD80B586B05F
:1022600000AF7860396000237B610023FB600023AE
:102270003B617B681B689B6803F00C03002B00F03C
:102280009B807B681B68DB6803F00073B3F1007F01
:102290002AD17B685B7E012B26D17B681B7E012BBC
:1022A00022D10C233B6014E03B69464A93420DD98E
:1022B0007B681B6C43F010027B681A647B685B6C64
:1022C00043F001027B685A64012376E03B690133E5
:1022D0003B617B681B681B6803F04003402BE3D124
:1022E0007B681B6840221A603B68602B15D07B68B6
:1022F0001B689B6803F00403042B0ED17B681B68EA
:102300009B6803F00203002B07D17B681B689A6867
:102310007B681B6842F010029A603B680C2B15D05A
:102320007B681B689B6803F00803082B0ED17B6851
:102330001B689B6803F00203002B07D17B681B68B6
:102340009A687B681B6842F020029A603B68602BA9
:1023500005D03B686C2B05D10C237B6105E008237D
:102360007B6102E004237B6100BFFEF779FBF8602C
:102370001BE0FEF775FB0246FB68D31A0B2B14D942
:102380007B681B689A687B691340002B0DD07B68C3
:102390001B6C43F010027B681A647B685B6C43F033
:1023A00001027B685A64012307E07B681B689A6816
:1023B0007B691340002BDCD1002318461837BD463B
:1023C00080BD00BFFF93090080B485B000AF786086
:1023D0007B6803F00703FB600C4BDB68BB60BA68EB
:1023E0004FF6FF031340BB60FB681A02BB68134340
:1023F00043F0BF6343F40033BB60044ABB68D3605F
:1024000000BF1437BD465DF8047B704700ED00E067
:1024100080B400AF044BDB681B0A03F007031846C7
:10242000BD465DF8047B704700ED00E080B483B0EA
:1024300000AF0346FB7197F90730002B0BDBFB79EC
:1024400003F01F02074997F907305B09012000FAE2
:1024500002F241F8232000BF0C37BD465DF8047B33
:10246000704700BF00E100E080B483B000AF0346D6
:102470003960FB7197F90730002B0ADB3B68DAB251
:102480000C4997F907301201D2B20B4483F80023AC
:102490000AE03B68DAB20849FB7903F00F03043B1A
:1024A0001201D2B20B441A7600BF0C37BD465DF85C
:1024B000047B704700E100E000ED00E080B489B0EB
:1024C00000AFF860B9607A60FB6803F00703FB6156
:1024D000FB69C3F10703042B28BF0423BB61FB691D
:1024E0000433062B02D9FB69033B00E000237B6128
:1024F0004FF0FF32BB6902FA03F3DA43BB681A40BC
:102500007B699A404FF0FF317B6901FA03F3D943AD
:102510007B680B40134318462437BD465DF8047BA7
:102520007047000080B582B000AF78607B68013BE7
:10253000B3F1807F01D301230FE00A4A7B68013B9E
:1025400053600F214FF0FF30FFF78EFF054B002245
:102550009A60044B07221A60002318460837BD46CC
:1025600080BD00BF10E000E080B582B000AF7860B1
:102570007868FFF729FF00BF0837BD4680BD80B5EA
:1025800086B000AF0346B9607A60FB7300237B61BD
:10259000FFF73EFF78617A68B9687869FFF78EFFC8
:1025A000024697F90F3011461846FFF75DFF00BF4E
:1025B0001837BD4680BD80B582B000AF0346FB71C1
:1025C00097F907301846FFF731FF00BF0837BD46BF
:1025D00080BD80B582B000AF78607868FFF7A2FF59
:1025E000034618460837BD4680BD80B584B000AFAD
:1025F00078600023FB607B68002B01D1012337E06A
:102600007B68022283F821207B681B681B68FB60C3
:10261000FB6823F47F5323F03003FB607B685A6828
:102620007B689B681A437B68DB681A437B681B697D
:102630001A437B685B691A437B689B691A437B6812
:10264000DB691343FA681343FB607B681B68FA6815
:102650001A60786800F0B8F97B6800229A637B689A
:10266000012283F821207B68002283F820200023A8
:1026700018461037BD4680BD80B586B000AFF86003
:10268000B9607A603B600023FB75FB6893F82030EB
:10269000012B01D102234AE0FB68012283F82020AC
:1026A000FB6893F82130012B3AD1FB68022283F8B2
:1026B0002120FB6800229A63FB681B681A68FB688C
:1026C0001B6822F001021A603B687A68B968F868F2
:1026D00000F04BF9FB68DB6A002B08D0FB681B6835
:1026E0001A68FB681B6842F00E021A600FE0FB6874
:1026F0001B681A68FB681B6842F00A021A60FB68D4
:102700001B681A68FB681B6822F004021A60FB68E9
:102710001B681A68FB681B6842F001021A6005E03A
:10272000FB68002283F820200223FB75FB7D1846FE
:102730001837BD4680BD80B483B000AF78607B6839
:1027400093F82130022B08D07B6804229A637B68BF
:10275000002283F82020012320E07B681B681A6890
:102760007B681B6822F00E021A607B681B681A687F
:102770007B681B6822F001021A607B681A6C7B6818
:10278000DB6B012101FA02F25A607B68012283F8B7
:1027900021207B68002283F82020002318460C3774
:1027A000BD465DF8047B704780B584B000AF7860AB
:1027B0000023FB737B6893F82130022B05D07B68E4
:1027C00004229A630123FB7327E07B681B681A6865
:1027D0007B681B6822F00E021A607B681B681A680F
:1027E0007B681B6822F001021A607B681A6C7B68A8
:1027F000DB6B012101FA02F25A607B68012283F847
:1028000021207B68002283F820207B685B6B002BF3
:1028100003D07B685B6B78689847FB7B1846103762
:10282000BD4680BD80B584B000AF78607B68DB6B4F
:102830001B68FB607B681B681B68BB607B681B6C4C
:1028400004229A40FB681340002B24D0BB6803F09D
:102850000403002B1FD07B681B681B6803F0200358
:10286000002B07D17B681B681A687B681B6822F005
:1028700004021A607B681A6C7B68DB6B042101FA26
:1028800002F25A607B68DB6A002B6AD07B68DB6AE5
:102890007868984765E07B681B6C02229A40FB6869
:1028A0001340002B2CD0BB6803F00203002B27D071
:1028B0007B681B681B6803F02003002B0BD17B682F
:1028C0001B681A687B681B6822F00A021A607B6822
:1028D000012283F821207B681A6C7B68DB6B022164
:1028E00001FA02F25A607B68002283F820207B689C
:1028F0009B6A002B35D07B689B6A7868984730E0EC
:102900007B681B6C08229A40FB681340002B28D080
:10291000BB6803F00803002B23D07B681B681A6890
:102920007B681B6822F00E021A607B681A6C7B6859
:10293000DB6B012101FA02F25A607B6801229A6383
:102940007B68012283F821207B68002283F8202005
:102950007B681B6B002B04D07B681B6B78689847E7
:10296000FFE700BF1037BD4680BD80B485B000AF23
:10297000F860B9607A603B60FB681A6CFB68DB6BDF
:10298000012101FA02F25A60FB681B683A685A603A
:10299000FB685B68102B08D1FB681B687A689A603B
:1029A000FB681B68BA68DA6007E0FB681B68BA68F6
:1029B0009A60FB681B687A68DA6000BF1437BD460E
:1029C0005DF8047B7047000080B483B000AF78608E
:1029D0007B681B681A46144B9A420FD87B681B68A9
:1029E0001A46124B1344124AA2FB03231B099A00F6
:1029F0007B681A647B680F4ADA630EE07B681B68A9
:102A00001A460D4B13440A4AA2FB03231B099A00E2
:102A10007B681A647B68094ADA6300BF0C37BD46DD
:102A20005DF8047B704700BF07040240F8FFFDBF5C
:102A3000CDCCCCCC00000240F8FBFDBF000402402E
:102A400080B487B000AF7860396000237B6160E1BB
:102A50003B681A6801217B6901FA03F31340FB60AC
:102A6000FB68002B00F052813B685B6803F00303B6
:102A7000012B05D03B685B6803F00303022B30D1C8
:102A80007B689B683B617B695B00032202FA03F36E
:102A9000DB433A6913403B613B68DA687B695B0062
:102AA00002FA03F33A6913433B617B683A699A601F
:102AB0007B685B683B6101227B6902FA03F3DB43BD
:102AC0003A6913403B613B685B681B0903F00102F4
:102AD0007B6902FA03F33A6913433B617B683A6905
:102AE0005A603B685B6803F00303032B17D07B68D5
:102AF000DB683B617B695B00032202FA03F3DB4383
:102B00003A6913403B613B689A687B695B0002FA53
:102B100003F33A6913433B617B683A69DA603B68C7
:102B20005B6803F00303022B23D17B69DA087B681F
:102B3000083253F822303B617B6903F007039B00A6
:102B40000F2202FA03F3DB433A6913403B613B680F
:102B50001A697B6903F007039B0002FA03F33A69E1
:102B600013433B617B69DA087B680832396943F8B3
:102B700022107B681B683B617B695B00032202FAC1
:102B800003F3DB433A6913403B613B685B6803F046
:102B900003027B695B0002FA03F33A6913433B616A
:102BA0007B683A691A603B685B6803F44033002B2A
:102BB00000F0AC805E4B9B695D4A43F0010393617A
:102BC0005B4B9B6903F00103BB60BB68594A7B699F
:102BD0009B08023352F823303B617B6903F0030307
:102BE0009B000F2202FA03F3DB433A6913403B6177
:102BF0007B68B3F1904F25D07B684F4A93421FD03A
:102C00007B684E4A934219D07B684D4A934213D059
:102C10007B684C4A93420DD07B684B4A934207D065
:102C20007B684A4A934201D106230CE007230AE05D
:102C3000052308E0042306E0032304E0022302E066
:102C4000012300E000237A6902F00302920093401E
:102C50003A6913433B6137497B699B0802333A6900
:102C600041F823203A4B1B683B61FB68DB433A6920
:102C700013403B613B685B6803F48033002B03D057
:102C80003A69FB6813433B61314A3B691360304B3F
:102C90005B683B61FB68DB433A6913403B613B681F
:102CA0005B6803F40033002B03D03A69FB681343DD
:102CB0003B61274A3B695360254B9B683B61FB683E
:102CC000DB433A6913403B613B685B6803F4801364
:102CD000002B03D03A69FB6813433B611C4A3B69F4
:102CE00093601B4BDB683B61FB68DB433A69134035
:102CF0003B613B685B6803F40013002B03D03A6927
:102D0000FB6813433B61124A3B69D3607B69013323
:102D10007B613B681A687B6922FA03F3002B7FF41E
:102D200097AE00BF00BF1C37BD465DF8047B7047FF
:102D30000010024000000140000400480008004864
:102D4000000C00480010004800140048001800481B
:102D50000004014080B483B000AF78600B467B80F4
:102D600013467B707B78002B03D07A887B689A614E
:102D700002E07A887B689A6200BF0C37BD465DF836
:102D8000047B704780B485B000AF78600B467B80D1
:102D90007B685B69FB607A88FB6813401A04FB68F8
:102DA000D9437B880B401A437B689A6100BF143774
:102DB000BD465DF8047B704780B5ADF5027D00AF80
:102DC0003B1D18603B1D1B68002B02D1012300F046
:102DD00001BF3B1D1B681B6803F00103002B00F0C3
:102DE0006081AE4B5B6803F00C03042B0CD0AB4B43
:102DF0005B6803F00C03082B59D1A84B5B6803F404
:102E0000C033B3F5803F52D14FF40033C7F8F431EB
:102E1000D7F8F43193FAA3F3C7F8F031D7F8F031CB
:102E2000B3FA83F3DBB25B09DBB243F00103DBB23D
:102E3000012B02D1994B1B6815E04FF40033C7F802
:102E4000EC31D7F8EC3193FAA3F3C7F8E8314FF43B
:102E50000033C7F8E431D7F8E43193FAA3F3C7F8A5
:102E6000E0318E4B5B6A4FF40032C7F8DC21D7F8B3
:102E7000DC2192FAA2F2C7F8D821D7F8D821B2FA09
:102E800082F2D2B242F02002D2B202F01F0201213D
:102E900001FA02F21340002B00F002813B1D1B6877
:102EA0005B68002B40F0FC80012300F093BE3B1DCB
:102EB0001B685B68B3F5803F06D1784B1B68774A87
:102EC00043F48033136030E03B1D1B685B68002BCC
:102ED0000CD1724B1B68714A23F4803313606F4B23
:102EE0001B686E4A23F4802313601EE03B1D1B68A1
:102EF0005B68B3F5A02F0CD1684B1B68674A43F49D
:102F000080231360654B1B68644A43F4803313606D
:102F10000BE0624B1B68614A23F4803313605F4B04
:102F20001B685E4A23F4802313603B1D1B685B68AB
:102F3000002B59D0FDF794FDC7F800020AE0FDF719
:102F40008FFD0246D7F80032D31A642B02D903232F
:102F500000F040BE4FF40033C7F8D431D7F8D43175
:102F600093FAA3F3C7F8D031D7F8D031B3FA83F38B
:102F7000DBB25B09DBB243F00103DBB2012B02D110
:102F8000464B1B6815E04FF40033C7F8CC31D7F837
:102F9000CC3193FAA3F3C7F8C8314FF40033C7F824
:102FA000C431D7F8C43193FAA3F3C7F8C0313B4B0F
:102FB0005B6A4FF40032C7F8BC21D7F8BC2192FA03
:102FC000A2F2C7F8B821D7F8B821B2FA82F2D2B289
:102FD00042F02002D2B202F01F02012101FA02F2F5
:102FE0001340002BABD05CE0FDF73AFDC7F80002C0
:102FF0000AE0FDF735FD0246D7F80032D31A642BFC
:1030000002D9032300F0E6BD4FF40033C7F8B43112
:10301000D7F8B43193FAA3F3C7F8B031D7F8B03189
:10302000B3FA83F3DBB25B09DBB243F00103DBB23B
:10303000012B02D1194B1B6815E04FF40033C7F880
:10304000AC31D7F8AC3193FAA3F3C7F8A8314FF4F9
:103050000033C7F8A431D7F8A43193FAA3F3C7F823
:10306000A0310E4B5B6A4FF40032C7F89C21D7F8B1
:103070009C2192FAA2F2C7F89821D7F89821B2FAC7
:1030800082F2D2B242F02002D2B202F01F0201213B
:1030900001FA02F21340002BABD102E00010024013
:1030A00000BF3B1D1B681B6803F00203002B00F0F0
:1030B0007081D04B5B6803F00C03002B0CD0CD4B20
:1030C0005B6803F00C03082B6DD1CA4B5B6803F4FB
:1030D000C033B3F5004F66D10223C7F89431D7F857
:1030E000943193FAA3F3C7F89031D7F89031B3FA3B
:1030F00083F3DBB25B09DBB243F00103DBB2012BEC
:1031000002D1BC4B1B6813E00223C7F88C31D7F8FF
:103110008C3193FAA3F3C7F888310223C7F88431BE
:10312000D7F8843193FAA3F3C7F88031B14B5B6AC7
:103130000222C7F87C21D7F87C2192FAA2F2C7F8C4
:103140007821D7F87821B2FA82F2D2B242F0200286
:10315000D2B202F01F02012101FA02F21340002B49
:1031600007D03B1D1B68DB68012B02D0012300F058
:1031700031BDA04B1B6823F0F8023B1D1B681B6987
:10318000F821C7F87411D7F8741191FAA1F1C7F8B2
:103190007011D7F87011B1FA81F1C9B28B4095491D
:1031A00013430B60F5E03B1D1B68DB68002B00F050
:1031B00085800123C7F86C31D7F86C3193FAA3F3FB
:1031C000C7F86831D7F86831B3FA83F3DBB203F19B
:1031D000845303F584139B001A4601231360FDF703
:1031E0003FFCC7F800020AE0FDF73AFC0246D7F8B8
:1031F0000032D31A022B02D9032300F0EBBC0223C6
:10320000C7F86431D7F8643193FAA3F3C7F8603193
:10321000D7F86031B3FA83F3DBB25B09DBB243F07A
:103220000103DBB2012B02D1724B1B6813E00223B6
:10323000C7F85C31D7F85C3193FAA3F3C7F858317B
:103240000223C7F85431D7F8543193FAA3F3C7F8DF
:103250005031684B5B6A0222C7F84C21D7F84C21E9
:1032600092FAA2F2C7F84821D7F84821B2FA82F2BE
:10327000D2B242F02002D2B202F01F02012101FAC2
:1032800002F21340002BAFD05A4B1B6823F0F80218
:103290003B1D1B681B69F821C7F84411D7F844117E
:1032A00091FAA1F1C7F84011D7F84011B1FA81F1B4
:1032B000C9B28B404F4913430B606AE00123C7F842
:1032C0003C31D7F83C3193FAA3F3C7F83831D7F83B
:1032D0003831B3FA83F3DBB203F1845303F584137B
:1032E0009B001A4600231360FDF7BAFBC7F80002E3
:1032F0000AE0FDF7B5FB0246D7F80032D31A022BDD
:1033000002D9032300F066BC0223C7F83431D7F892
:10331000343193FAA3F3C7F83031D7F83031B3FA28
:1033200083F3DBB25B09DBB243F00103DBB2012BB9
:1033300002D1304B1B6813E00223C7F82C31D7F8B9
:103340002C3193FAA3F3C7F828310223C7F82431AC
:10335000D7F8243193FAA3F3C7F82031254B5B6AE1
:103360000222C7F81C21D7F81C2192FAA2F2C7F852
:103370001821D7F81821B2FA82F2D2B242F0200214
:10338000D2B202F01F02012101FA02F21340002B17
:10339000AFD13B1D1B681B6803F00803002B00F036
:1033A000DA803B1D1B685B69002B69D00123C7F8DD
:1033B0001431D7F8143193FAA3F3C7F81031D7F8C2
:1033C0001031B3FA83F3DBB21A460B4B13449B0064
:1033D0001A4601231360FDF743FBC7F800020DE016
:1033E000FDF73EFB0246D7F80032D31A022B05D96F
:1033F0000323EFE300100240208190100223C7F85E
:103400000C31D7F80C3193FAA3F207F584731A60E4
:1034100007F5827302221A6007F582731B6893FA1C
:10342000A3F207F580731A6007F1FC0302221A6009
:1034300007F1FC031B6893FAA3F207F1F8031A6083
:10344000A44B5A6A07F1F4030221196007F1F4034F
:103450001B6893FAA3F107F1F003196007F1F00379
:103460001B68B3FA83F3DBB243F06003DBB203F013
:103470001F03012101FA03F31340002BB0D06AE0CF
:1034800007F1EC0301221A6007F1EC031B6893FAC1
:10349000A3F207F1E8031A6007F1E8031B68B3FA27
:1034A00083F3DBB21A468C4B13449B001A4600236D
:1034B0001360FDF7D5FAC7F8000209E0FDF7D0FA6E
:1034C0000246D7F80032D31A022B01D9032381E335
:1034D00007F1E40302221A6007F1E4031B6893FA80
:1034E000A3F207F1E0031A6007F1DC0302221A607D
:1034F00007F1DC031B6893FAA3F207F1D8031A6003
:1035000007F1D40302221A6007F1D4031B6893FA6F
:10351000A3F207F1D0031A606E4B5A6A07F1CC038D
:103520000221196007F1CC031B6893FAA3F107F19C
:10353000C803196007F1C8031B68B3FA83F3DBB251
:1035400043F06003DBB203F01F03012101FA03F330
:103550001340002BB2D13B1D1B681B6803F0040312
:10356000002B00F05781002387F80732594BDB69A5
:1035700003F08053002B12D1564BDB69554A43F0C0
:103580008053D361534BDB6903F0805207F10C0386
:103590001A6007F10C031B68012387F807324F4BB1
:1035A0001B6803F48073002B1AD14C4B1B684B4AE9
:1035B00043F480731360FDF753FAC7F8000209E083
:1035C000FDF74EFA0246D7F80032D31A642B01D920
:1035D0000323FFE2414B1B6803F48073002BEFD001
:1035E0003B1D1B689B68012B06D13A4B1B6A394A6D
:1035F00043F0010313622FE03B1D1B689B68002B07
:103600000CD1344B1B6A334A23F001031362314B54
:103610001B6A304A23F0040313621DE03B1D1B6844
:103620009B68052B0CD12B4B1B6A2A4A43F00403E1
:103630001362284B1B6A274A43F0010313620BE015
:10364000244B1B6A234A23F001031362214B1B6A9C
:10365000204A23F0040313623B1D1B689B68002B68
:103660006AD0FDF7FDF9C7F800020BE0FDF7F8F9A5
:103670000246D7F80032D31A41F28832934201D978
:103680000323A7E207F1C40302221A6007F1C4036F
:103690001B6893FAA3F207F1C0031A6007F1BC0399
:1036A00002221A6007F1BC031B6893FAA3F207F128
:1036B000B8031A6007F1B8031B68B3FA83F3DBB2EF
:1036C0005B09DBB243F00203DBB2022B08D1014BF2
:1036D0001B6A13E00010024020819010007000402F
:1036E00007F1B40302221A6007F1B4031B6893FACE
:1036F000A3F207F1B0031A60C04B5B6A07F1AC029A
:103700000221116007F1AC02126892FAA2F107F1EE
:10371000A802116007F1A8021268B2FA82F2D2B2CE
:1037200042F04002D2B202F01F02012101FA02F27D
:103730001340002B9AD063E0FDF792F9C7F800021E
:103740000BE0FDF78DF90246D7F80032D31A41F2AB
:103750008832934201D903233CE207F1A4030222F9
:103760001A6007F1A4031B6893FAA3F207F1A00300
:103770001A6007F19C0302221A6007F19C031B6880
:1037800093FAA3F207F198031A6007F198031B68F4
:10379000B3FA83F3DBB25B09DBB243F00203DBB2C3
:1037A000022B02D1954B1B6A0DE007F19403022214
:1037B0001A6007F194031B6893FAA3F207F19003D0
:1037C0001A608E4B5B6A07F18C020221116007F1CF
:1037D0008C02126892FAA2F107F18802116007F1D7
:1037E00088021268B2FA82F2D2B242F04002D2B239
:1037F00002F01F02012101FA02F21340002BA0D1B6
:1038000097F80732012B05D17C4BDB697B4A23F00B
:103810008053D3613B1D1B689B69002B00F0D9814D
:10382000764B5B6803F00C03082B00F0A6813B1D70
:103830001B689B69022B40F01E8107F184034FF047
:1038400080721A6007F184031B6893FAA3F207F1F0
:1038500080031A6007F180031B68B3FA83F3DBB2BD
:1038600003F1845303F584139B001A46002313606D
:10387000FDF7F6F8C7F8000209E0FDF7F1F8024697
:10388000D7F80032D31A022B01D90323A2E107F1A2
:103890007C034FF000721A6007F17C031B6893FAF7
:1038A000A3F207F178031A6007F178031B68B3FAF3
:1038B00083F3DBB25B09DBB243F00103DBB2012B24
:1038C00002D14E4B1B681BE007F174034FF00072EE
:1038D0001A6007F174031B6893FAA3F207F17003EF
:1038E0001A6007F16C034FF000721A6007F16C0365
:1038F0001B6893FAA3F207F168031A603F4B5B6AF7
:1039000007F164024FF00071116007F16402126860
:1039100092FAA2F107F16002116007F160021268E9
:10392000B2FA82F2D2B242F02002D2B202F01F0208
:10393000012101FA02F21340002B9ED12F4BDB6ACA
:1039400023F00F023B1D1B685B6A2C491343CB62BB
:103950002A4B5B6823F476123B1D1B68196A3B1DDA
:103960001B68DB690B43254913434B6007F15C037C
:103970004FF080721A6007F15C031B6893FAA3F2A0
:1039800007F158031A6007F158031B68B3FA83F371
:10399000DBB203F1845303F584139B001A46012321
:1039A0001360FDF75DF8C7F8000209E0FDF758F86D
:1039B0000246D7F80032D31A022B01D9032309E1BA
:1039C00007F154034FF000721A6007F154031B68AB
:1039D00093FAA3F207F150031A6007F150031B6832
:1039E000B3FA83F3DBB25B09DBB243F00103DBB272
:1039F000012B05D1014B1B681EE000BF00100240E7
:103A000007F14C034FF000721A6007F14C031B687A
:103A100093FAA3F207F148031A6007F144034FF049
:103A200000721A6007F144031B6893FAA3F207F1CE
:103A300040031A606A4B5B6A07F13C024FF0007169
:103A4000116007F13C02126892FAA2F107F1380204
:103A5000116007F138021268B2FA82F2D2B242F073
:103A60002002D2B202F01F02012101FA02F2134039
:103A7000002B9BD0ADE007F134034FF080721A6049
:103A800007F134031B6893FAA3F207F130031A60BD
:103A900007F130031B68B3FA83F3DBB203F18453FD
:103AA00003F584139B001A4600231360FCF7D8FF2C
:103AB000C7F8000209E0FCF7D3FF0246D7F800324E
:103AC000D31A022B01D9032384E007F12C034FF012
:103AD00000721A6007F12C031B6893FAA3F207F136
:103AE00028031A6007F128031B68B3FA83F3DBB2DB
:103AF0005B09DBB243F00103DBB2012B02D1384B8F
:103B00001B681BE007F124034FF000721A6007F1F5
:103B100024031B6893FAA3F207F120031A6007F14C
:103B20001C034FF000721A6007F11C031B6893FA24
:103B3000A3F207F118031A60294B5B6A07F114021C
:103B40004FF00071116007F11402126892FAA2F1AD
:103B500007F11002116007F110021268B2FA82F246
:103B6000D2B242F02002D2B202F01F02012101FAC9
:103B700002F21340002B9ED12BE03B1D1B689B697A
:103B8000012B01D1012325E0154B5B68C7F8FC31FF
:103B9000134BDB6AC7F8F831D7F8FC3103F4C032B5
:103BA0003B1D1B68DB699A4211D1D7F8FC3103F445
:103BB00070123B1D1B681B6A9A4208D1D7F8F83176
:103BC00003F00F023B1D1B685B6A9A4201D0012380
:103BD00000E00023184607F50277BD4680BD00BF10
:103BE0000010024080B59EB000AF786039600023BD
:103BF0007B677B68002B01D1012362E1904B1B683E
:103C000003F007033A689A4210D98D4B1B6823F0E2
:103C100007028B493B6813430B60894B1B6803F019
:103C200007033A689A4201D001234AE17B681B6886
:103C300003F00203002B08D0824B5B6823F0F002F4
:103C40007B689B687F4913434B607B681B6803F06C
:103C50000103002B00F0DC807B685B68012B3CD10A
:103C60004FF400333B673B6F93FAA3F3FB66FB6EA5
:103C7000B3FA83F3DBB25B09DBB243F00103DBB2DF
:103C8000012B02D16F4B1B680FE04FF40033BB6672
:103C9000BB6E93FAA3F37B664FF400333B663B6E37
:103CA00093FAA3F3FB65674B5B6A4FF40032BA6586
:103CB000BA6D92FAA2F27A657A6DB2FA82F2D2B253
:103CC00042F02002D2B202F01F02012101FA02F2F8
:103CD0001340002B7BD10123F3E07B685B68022B50
:103CE0003CD14FF000733B653B6D93FAA3F3FB644B
:103CF000FB6CB3FA83F3DBB25B09DBB243F0010385
:103D0000DBB2012B02D14F4B1B680FE04FF0007369
:103D1000BB64BB6C93FAA3F37B644FF000733B640A
:103D20003B6C93FAA3F3FB63464B5B6A4FF0007264
:103D3000BA63BA6B92FAA2F27A637A6BB2FA82F23F
:103D4000D2B242F02002D2B202F01F02012101FAE7
:103D500002F21340002B3AD10123B2E002233B636D
:103D60003B6B93FAA3F3FB62FB6AB3FA83F3DBB218
:103D70005B09DBB243F00103DBB2012B02D1314B13
:103D80001B680DE00223BB62BB6A93FAA3F37B625C
:103D900002233B623B6A93FAA3F3FB61294B5B6A04
:103DA0000222BA61BA6992FAA2F27A617A69B2FA27
:103DB00082F2D2B242F02002D2B202F01F020121FE
:103DC00001FA02F21340002B01D1012379E01D4BCF
:103DD0005B6823F003027B685B681A4913434B60FE
:103DE000FCF73EFE78670AE0FCF73AFE02467B6F7E
:103DF000D31A41F28832934201D9032361E0114B77
:103E00005B6803F00C027B685B689B009A42EBD115
:103E10000B4B1B6803F007033A689A4214D2084B15
:103E20001B6823F0070206493B6813430B60044BF1
:103E30001B6803F007033A689A4205D0012340E06B
:103E400000200240001002407B681B6803F004035E
:103E5000002B08D01D4B5B6823F4E0627B68DB68B5
:103E60001A4913434B607B681B6803F00803002B5F
:103E700009D0164B5B6823F460527B681B69DB003A
:103E8000124913434B6000F029F801460F4B5B6861
:103E900003F0F003F0223A613A6992FAA2F2FA6072
:103EA000FA68B2FA82F2D2B2D340094AD35C21FA5C
:103EB00003F3084A1360084B1B681846FCF78CFD97
:103EC000002318467837BD4680BD00BF0010024071
:103ED0009C5D0008000000200400002080B48BB02E
:103EE00000AF0023FB610023BB6100237B62002342
:103EF0007B6100233B622A4B5B68FB61FB6903F03B
:103F00000C03042B02D0082B03D03FE0254B3B626F
:103F10003FE0FB6903F470134FF47012BA60BA68A3
:103F200092FAA2F27A607A68B2FA82F2D2B2D340FE
:103F30001D4AD35C7B611A4BDB6A03F00F030F222F
:103F40003A613A6992FAA2F2FA60FA68B2FA82F237
:103F5000D2B2D340154AD35CBB61FB6903F4803312
:103F6000002B08D00F4ABB69B2FBF3F27B6902FB5E
:103F700003F37B6207E00B4ABB69B2FBF3F27B6998
:103F800002FB03F37B627B6A3B6202E0054B3B6210
:103F900000BF3B6A18462C37BD465DF8047B70476E
:103FA0000010024000127A00B45D0008C45D0008F1
:103FB00080B400AF034B1B681846BD465DF8047B18
:103FC000704700BF0000002080B582B000AFFFF74F
:103FD000EFFF01460B4B5B6803F4E0634FF4E062D4
:103FE0007A607A6892FAA2F23A603A68B2FA82F299
:103FF000D2B2D340044AD35C21FA03F318460837FF
:10400000BD4680BD00100240AC5D000880B582B0A6
:1040100000AFFFF7CDFF01460B4B5B6803F4605325
:104020004FF460527A607A6892FAA2F23A603A6883
:10403000B2FA82F2D2B2D340044AD35C21FA03F33B
:1040400018460837BD4680BD00100240AC5D000830
:1040500080B592B000AF786000233B640023FB631F
:10406000002387F847307B681B6803F48033002BFC
:1040700000F0D4804E4BDB6903F08053002B0ED14F
:104080004B4BDB694A4A43F08053D361484BDB69B1
:1040900003F08053BB60BB68012387F84730454B72
:1040A0001B6803F48073002B18D1424B1B68414AF4
:1040B00043F480731360FCF7D3FC386408E0FCF72A
:1040C000CFFC02463B6CD31A642B01D90323D6E103
:1040D000384B1B6803F48073002BF0D0344B1B6A01
:1040E00003F44073FB63FB6B002B00F084807B6860
:1040F0005B6803F44073FA6B9A427CD02C4B1B6ACA
:1041000023F44073FB634FF480333B633B6B93FAC0
:10411000A3F3FB62FB6AB3FA83F3DBB21A46264BC6
:1041200013449B001A46012313604FF48033BB6392
:10413000BB6B93FAA3F37B637B6BB3FA83F3DBB2C2
:104140001A461D4B13449B001A4600231360184A5D
:10415000FB6B1362FB6B03F00103002B4BD0FCF7EE
:104160007FFC38640AE0FCF77BFC02463B6CD31A08
:1041700041F28832934201D9032380E10223BB62DA
:10418000BB6A93FAA3F37B6202233B623B6A93FA16
:10419000A3F3FB61FB69B3FA83F3DBB25B09DBB228
:1041A00043F00203DBB2022B08D1014B1B6A0DE086
:1041B0000010024000700040008190100223BB619B
:1041C000BB6993FAA3F37B61A04B5B6A02223A615D
:1041D0003A6992FAA2F2FA60FA68B2FA82F2D2B2BC
:1041E00042F04002D2B202F01F02012101FA02F2B3
:1041F0001340002BB7D0954B1B6A23F440727B68A9
:104200005B68924913430B6297F84730012B05D145
:104210008E4BDB698D4A23F08053D3617B681B682A
:1042200003F00103002B08D0884B1B6B23F0030223
:104230007B689B68854913430B637B681B6803F0AD
:104240000203002B08D0814B1B6B23F440327B68A8
:10425000DB687E4913430B637B681B6803F0040330
:10426000002B08D0794B1B6B23F440227B681B6921
:10427000764913430B637B681B6803F02003002B14
:1042800008D0724B1B6B23F010027B68DB696F490F
:1042900013430B637B681B6803F40033002B08D0C7
:1042A0006A4B5B6823F480027B685B6D674913434C
:1042B0004B607B681B6803F04003002B08D0634B06
:1042C0001B6B23F020027B681B6A604913430B635E
:1042D0007B681B6803F48023002B08D05B4B1B6BAF
:1042E00023F040027B685B6A584913430B637B6889
:1042F0001B6803F00803002B08D0544B1B6B23F4FE
:1043000040127B685B69514913430B637B681B68F0
:1043100003F01003002B08D04C4B1B6B23F440021E
:104320007B689B69494913430B637B681B6803F4F3
:104330000073002B08D0454B5B6823F400027B68B8
:104340001B6B424913434B607B681B6803F080037F
:10435000002B08D03D4BDB6A23F4F8727B689B6A24
:104360003A491343CB627B681B6803F48073002BCC
:1043700008D0364BDB6A23F478527B68DB6A33491A
:104380001343CB627B681B6803F48053002B08D077
:104390002E4B1B6B23F480727B685B6B2B491343A2
:1043A0000B637B681B6803F40053002B08D0274B7A
:1043B0001B6B23F400727B681B6C244913430B6353
:1043C0007B681B6803F48013002B08D01F4B1B6B0A
:1043D00023F080727B689B6B1C4913430B637B68E3
:1043E0001B6803F40013002B08D0184B1B6B23F041
:1043F00000727B68DB6B154913430B637B681B689A
:1044000003F48003002B08D0104B1B6B23F4806255
:104410007B685B6C0D4913430B637B681B6803F47B
:104420000003002B08D0094B1B6B23F400627B6850
:104430009B6C064913430B637B681B6803F0807316
:10444000002B0CD0014B1B6B02E000BF00100240A0
:1044500023F400527B68DB6C0B4913430B637B68CE
:104460001B6803F00073002B08D0074B1B6B23F471
:1044700000427B681B6D044913430B6300231846FD
:104480004837BD4680BD00BF0010024080B582B0F5
:1044900000AF78607B68002B01D1012340E07B688E
:1044A0009B6F002B06D17B68002283F8742078680C
:1044B000FCF778F97B6824229A677B681B681A6886
:1044C0007B681B6822F001021A60786800F0BEFB6E
:1044D0000346012B01D1012322E07B685B6A002B9C
:1044E00002D0786800F088FD7B681B685A687B689A
:1044F0001B6822F490425A607B681B689A687B684C
:104500001B6822F02A029A607B681B681A687B6825
:104510001B6842F001021A60786800F00FFE034643
:1045200018460837BD4680BD80B58AB002AFF86036
:10453000B9603B601346FB80FB689B6F202B40F00B
:104540008280BB68002B02D0FB88002B01D10123A5
:104550007AE0FB6893F87430012B01D1022373E0F9
:10456000FB68012283F87420FB680022C3F88020D6
:10457000FB6821229A67FCF773FA7861FB68FA8876
:10458000A3F85020FB68FA88A3F85220FB689B68C8
:10459000B3F5805F08D1FB681B69002B04D10023B1
:1045A000FB61BB68BB6103E0BB68FB610023BB61CF
:1045B000FB68002283F874202DE03B6800937B6940
:1045C00000228021F86800F002FE0346002B01D093
:1045D000032339E0FB69002B0BD1BB691A88FB6808
:1045E0001B68C2F3080292B21A85BB690233BB6131
:1045F00008E0FB691A78FB681B6892B21A85FB69B0
:104600000133FB61FB68B3F852309BB2013B9AB2B5
:10461000FB68A3F85220FB68B3F852309BB2002B22
:10462000CBD13B6800937B6900224021F86800F001
:10463000CEFD0346002B01D0032305E0FB682022BA
:104640009A67002300E0022318462037BD4680BD4C
:1046500080B5BAB000AF78607B681B68DB69C7F8CB
:10466000E4307B681B681B68C7F8E0307B681B6818
:104670009B68C7F8DC30D7F8E42040F60F031340FE
:10468000C7F8D830D7F8D830002B15D1D7F8E43098
:1046900003F02003002B0FD0D7F8E03003F0200305
:1046A000002B09D07B685B6E002B00F0A3827B6837
:1046B0005B6E786898479DE2D7F8D830002B00F001
:1046C0001781D7F8DC3003F00103002B06D1D7F8AF
:1046D000E020854B1340002B00F00A81D7F8E4302E
:1046E00003F00103002B11D0D7F8E03003F48073FE
:1046F000002B0BD07B681B6801221A627B68D3F801
:10470000803043F001027B68C3F88020D7F8E430A2
:1047100003F00203002B11D0D7F8DC3003F00103C3
:10472000002B0BD07B681B6802221A627B68D3F8CF
:10473000803043F004027B68C3F88020D7F8E4306F
:1047400003F00403002B11D0D7F8DC3003F0010391
:10475000002B0BD07B681B6804221A627B68D3F89D
:10476000803043F002027B68C3F88020D7F8E43041
:1047700003F00803002B17D0D7F8E03003F0200334
:10478000002B05D1D7F8DC3003F00103002B0BD050
:104790007B681B6808221A627B68D3F8803043F07C
:1047A00008027B68C3F88020D7F8E43003F4006384
:1047B000002B12D0D7F8E03003F08063002B0CD030
:1047C0007B681B684FF400621A627B68D3F8803004
:1047D00043F020027B68C3F880207B68D3F88030E8
:1047E000002B00F00982D7F8E43003F02003002BFF
:1047F0000DD0D7F8E03003F02003002B07D07B6802
:104800005B6E002B03D07B685B6E786898477B6893
:10481000D3F88030C7F8D4307B681B689B6803F0FE
:104820004003402B05D0D7F8D43003F02803002BE9
:104830004FD0786800F08FFD7B681B689B6803F0A1
:104840004003402B41D17B681B680833C7F89C307C
:10485000D7F89C3053E8003FC7F89830D7F8983025
:1048600023F04003C7F8D0307B681B680833D7F8C3
:10487000D020C7F8A820C7F8A430D7F8A410D7F8DC
:10488000A82041E80023C7F8A030D7F8A030002BBB
:10489000D9D17B681B6F002B13D07B681B6F134A29
:1048A0005A637B681B6F1846FDF77EFF0346002B9B
:1048B00017D07B681B6F5B6B7A68126F1046984746
:1048C0000FE0786800F0ACF90BE0786800F0A8F928
:1048D00007E0786800F0A4F97B680022C3F8802024
:1048E0008AE100BF88E100BF200100041D540008D8
:1048F0007B681B6E012B40F04381D7F8E43003F056
:104900001003002B00F03C81D7F8E03003F01003D7
:10491000002B00F035817B681B6810221A627B68CF
:104920001B689B6803F04003402B40F0B1807B681C
:104930001B6F1B685B68A7F8BE30B7F8BE30002B52
:1049400000F05C817B68B3F85830B7F8BE209A421B
:1049500080F054817B68B7F8BE20A3F85A207B68AA
:104960001B6F9B69202B00F085807B681B68C7F854
:104970008830D7F8883053E8003FC7F88430D7F83C
:10498000843023F48073C7F8B8307B681B681A46FC
:10499000D7F8B830C7F89430C7F89020D7F89010FF
:1049A000D7F8942041E80023C7F88C30D7F88C3032
:1049B000002BDAD17B681B6808337B677B6F53E879
:1049C000003F3B673B6F23F00103C7F8B4307B68BF
:1049D0001B680833D7F8B420C7F88020FB67F96F4D
:1049E000D7F8802041E80023BB67BB6F002BE1D1E3
:1049F0007B681B6808333B663B6E53E8003FFB65F2
:104A0000FB6D23F04003C7F8B0307B681B680833A8
:104A1000D7F8B020FA66BB66B96EFA6E41E800239B
:104A20007B667B6E002BE3D17B682022DA677B6894
:104A300000221A667B681B68FB64FB6C53E8003F2E
:104A4000BB64BB6C23F01003C7F8AC307B681B68F9
:104A50001A46D7F8AC30BB657A65796DBA6D41E816
:104A600000233B653B6D002BE4D17B681B6F184630
:104A7000FDF761FE7B68B3F858207B68B3F85A30C5
:104A80009BB2D31A9BB21946786800F0D3F8B5E010
:104A90007B68B3F858207B68B3F85A309BB2D31ABE
:104AA000A7F8CE307B68B3F85A309BB2002B00F0E9
:104AB000A780B7F8CE30002B00F0A2807B681B687F
:104AC000BB63BB6B53E8003F7B637B6B23F490734A
:104AD000C7F8C8307B681B681A46D7F8C8307B64B3
:104AE0003A64396C7A6C41E80023FB63FB6B002B62
:104AF000E4D17B681B6808337B627B6A53E8003F24
:104B00003B623B6A23F00103C7F8C4307B681B6833
:104B10000833D7F8C4203A63FB62F96A3A6B41E87C
:104B20000023BB62BB6A002BE3D17B682022DA67DB
:104B30007B6800221A667B6800225A667B681B68C5
:104B40003B613B6953E8003FFB60FB6823F01003C7
:104B5000C7F8C0307B681B681A46D7F8C030FB61C5
:104B6000BA61B969FA6941E800237B617B69002B6E
:104B7000E4D1B7F8CE301946786800F05BF83FE032
:104B8000D7F8E43003F48013002B0ED0D7F8DC30D4
:104B900003F48003002B08D07B681B684FF480125D
:104BA0001A62786800F07AFC2DE0D7F8E43003F060
:104BB0008003002B0ED0D7F8E03003F08003002BE9
:104BC00008D07B689B6E002B1CD07B689B6E78683E
:104BD000984717E0D7F8E43003F04003002B12D0D9
:104BE000D7F8E03003F04003002B0CD0786800F0D9
:104BF0002BFC08E000BF06E000BF04E000BF02E0BD
:104C000000BF00E000BFE837BD4680BD80B483B080
:104C100000AF786000BF0C37BD465DF8047B70477D
:104C200080B483B000AF786000BF0C37BD465DF83C
:104C3000047B704780B483B000AF78600B467B8004
:104C400000BF0C37BD465DF8047B704780B588B067
:104C500000AF78600023BB777B689A687B681B692C
:104C60001A437B685B691A437B68DB6913437B618A
:104C70007B681B681A68AB4B13407A6812687969C5
:104C80000B4313607B681B685B6823F440517B68AF
:104C9000DA687B681B680A435A607B689B697B61A2
:104CA0007B681B6A7A6913437B617B681B689B681E
:104CB00023F430617B681B687A690A439A607B68D9
:104CC0001B68994A934220D1984B1B6B03F0030356
:104CD000032B17D801A252F823F000BFED4C0008B7
:104CE000F94C0008FF4C0008F34C00080123FB7747
:104CF000B5E00223FB77B2E00423FB77AFE00823A3
:104D0000FB77ACE01023FB77A9E07B681B68884A3F
:104D1000934224D1854B1B6B03F44033B3F5403FE2
:104D200011D0B3F5403F17D8B3F5003F11D0B3F51C
:104D3000003F11D8002B03D0B3F5803F06D00BE025
:104D40000023FB778BE00223FB7788E00423FB77CB
:104D500085E00823FB7782E01023FB777FE07B6808
:104D60001B68744A934224D1704B1B6B03F440239D
:104D7000B3F5402F11D0B3F5402F17D8B3F5002F5E
:104D800011D0B3F5002F11D8002B03D0B3F5802F2D
:104D900006D00BE00023FB7761E00223FB775EE0A7
:104DA0000423FB775BE00823FB7758E01023FB77B5
:104DB00055E07B681B68604A934224D15B4B1B6BB8
:104DC00003F44013B3F5401F11D0B3F5401F17D8BB
:104DD000B3F5001F11D0B3F5001F11D8002B03D07D
:104DE000B3F5801F06D00BE00023FB7737E00223EA
:104DF000FB7734E00423FB7731E00823FB772EE0D8
:104E00001023FB772BE07B681B684C4A934224D12C
:104E1000464B1B6B03F44003B3F5400F11D0B3F5C1
:104E2000400F17D8B3F5000F11D0B3F5000F11D80C
:104E3000002B03D0B3F5800F06D00BE00023FB77E7
:104E40000DE00223FB770AE00423FB7707E0082349
:104E5000FB7704E01023FB7701E01023FB777B68EE
:104E6000DB69B3F5004F6DD1FB7F082B27D801A27A
:104E700052F823F0994E0008A14E0008A94E0008F0
:104E8000BF4E0008AF4E0008BF4E0008BF4E0008DE
:104E9000BF4E0008B74E0008FFF796F8B86113E060
:104EA000FFF7B4F8B8610FE0254BBB610CE0FFF7EA
:104EB00015F8B86108E04FF40043BB6104E000233B
:104EC000BB610123BB7700BFBB69002B00F086806C
:104ED000BB695A007B685B685B081A447B685B6847
:104EE000B2FBF3F39BB23B613B690F2B16D93B69D5
:104EF000B3F5803F12D23B699BB223F00F03FB81D5
:104F00003B695B089BB203F007039AB2FB8913432A
:104F1000FB817B681B68FA89DA605FE00123BB775D
:104F20005CE000BFF369FFEF003801400010024071
:104F30000044004000480040004C00400050004049
:104F400000127A00FB7F082B27D801A252F823F029
:104F5000754F00087D4F0008854F00089B4F0008E3
:104F60008B4F00089B4F00089B4F00089B4F000889
:104F7000934F0008FFF728F8B86113E0FFF746F8F1
:104F8000B8610FE01B4BBB610CE0FEF7A7FFB861F7
:104F900008E04FF40043BB6104E00023BB61012340
:104FA000BB7700BFBB69002B18D07B685B685A08D1
:104FB000BB691A447B685B68B2FBF3F39BB23B614D
:104FC0003B690F2B08D93B69B3F5803F04D27B685E
:104FD0001B683A69DA6001E00123BB777B68002235
:104FE0005A667B6800229A66BB7F18462037BD460A
:104FF00080BD00BF00127A0080B483B000AF78603B
:105000007B685B6A03F00103002B0AD07B681B6896
:105010005B6823F400317B689A6A7B681B680A43EB
:105020005A607B685B6A03F00203002B0AD07B683E
:105030001B685B6823F480317B68DA6A7B681B68D5
:105040000A435A607B685B6A03F00403002B0AD0B2
:105050007B681B685B6823F480217B681A6B7B6824
:105060001B680A435A607B685B6A03F00803002BE5
:105070000AD07B681B685B6823F400417B685A6B2D
:105080007B681B680A435A607B685B6A03F0100305
:10509000002B0AD07B681B689B6823F480517B68D7
:1050A0009A6B7B681B680A439A607B685B6A03F0B3
:1050B0002003002B0AD07B681B689B6823F40051F7
:1050C0007B68DA6B7B681B680A439A607B685B6A63
:1050D00003F04003002B1AD07B681B685B6823F445
:1050E00080117B681A6C7B681B680A435A607B6876
:1050F0001B6CB3F5801F0AD17B681B685B6823F4C7
:10510000C0017B685A6C7B681B680A435A607B68E5
:105110005B6A03F08003002B0AD07B681B685B6826
:1051200023F400217B689A6C7B681B680A435A60F1
:1051300000BF0C37BD465DF8047B704780B586B074
:1051400002AF78607B680022C3F88020FBF788FC00
:10515000F8607B681B681B6803F00803082B0ED1FE
:105160006FF07E430093FB6800224FF400117868D3
:1051700000F02DF80346002B01D0032323E07B68C9
:105180001B681B6803F00403042B0ED16FF07E43F1
:105190000093FB6800224FF48001786800F017F854
:1051A0000346002B01D003230DE07B6820229A6781
:1051B0007B682022DA677B6800221A667B680022FF
:1051C00083F87420002318461037BD4680BD80B593
:1051D0009CB000AFF860B9603B601346FB71A5E07E
:1051E000BB6FB3F1FF3F00F0A180FBF739FC024633
:1051F0003B68D31ABA6F9A4202D3BB6F002B3ED1E1
:10520000FB681B683B653B6D53E8003FFB64FB6C30
:1052100023F4D0737B66FB681B681A467B6EFB65C4
:10522000BA65B96DFA6D41E800237B657B6D002B93
:10523000E6D1FB681B680833FB63FB6B53E8003F58
:10524000BB63BB6B23F001033B66FB681B68083341
:105250003A6EBA647B64796CBA6C41E800233B64B3
:105260003B6C002BE5D1FB6820229A67FB6820226B
:10527000DA67FB68002283F87420032367E0FB6889
:105280001B681B6803F00403002B4FD0FB681B68EE
:10529000DB6903F40063B3F5006F47D1FB681B685B
:1052A0004FF400621A62FB681B68BB62BB6A53E87A
:1052B000003F7B627B6A23F4D073FB66FB681B684C
:1052C0001A46FB6E7B633A63396B7A6B41E80023C5
:1052D000FB62FB6A002BE6D1FB681B6808337B612D
:1052E0007B6953E8003F3B613B6923F00103BB66E8
:1052F000FB681B680833BA6E3A62FB61F9693A6A67
:1053000041E80023BB61BB69002BE5D1FB6820228B
:105310009A67FB682022DA67FB682022C3F88020A6
:10532000FB68002283F87420032310E0FB681B68ED
:10533000DA69BB681340BA689A420CBF01230023A4
:10534000DBB21A46FB799A423FF44AAF0023184673
:105350007037BD4680BD80B495B000AF78607B6883
:105360001B687B637B6B53E8003F3B633B6B23F421
:105370009073FB647B681B681A46FB6C3B64FA63A2
:10538000F96B3A6C41E80023BB63BB6B002BE6D1A1
:105390007B681B6808333B623B6A53E8003FFB6154
:1053A000FB6923F00103BB647B681B680833BA6C9C
:1053B000FA62BB62B96AFA6A41E800237B627B6ADF
:1053C000002BE5D17B681B6E012B18D17B681B6815
:1053D000FB60FB6853E8003FBB60BB6823F0100331
:1053E0007B647B681B681A467B6CBB617A61796958
:1053F000BA6941E800233B613B69002BE6D17B6839
:105400002022DA677B6800221A667B6800225A66CF
:1054100000BF5437BD465DF8047B704780B584B04B
:1054200000AF78607B685B6AFB60FB680022A3F8D2
:105430005A20FB680022A3F85220F868FFF7F0FB1F
:1054400000BF1037BD4680BD80B588B000AF786022
:105450007B681B68FB60FB6853E8003FBB60BB6870
:1054600023F04003FB617B681B681A46FB69BB6144
:105470007A617969BA6941E800233B613B69002B95
:10548000E6D17B6820229A677B6800229A6678685A
:10549000FFF7BCFB00BF2037BD4680BD80B483B0A2
:1054A00000AF786000BF0C37BD465DF8047B7047E5
:1054B000014B1868704700BF0C00002070B50D4DFF
:1054C0000D4C641BA4100026A64209D10B4D0C4CB8
:1054D00000F04EFC641BA4100026A64205D170BD4E
:1054E00055F8043B98470136EEE755F8043B9847DA
:1054F0000136F2E7085E0008085E0008085E000852
:105500000C5E000802440346934200D1704703F842
:10551000011BF9E70EB400B59CB01DAB02900690DC
:105520006FF00041094807910491094953F8042B91
:1055300005910068019302A900F068F8029B00221F
:105540001A701CB05DF804EB03B070470C0000202B
:105550000802FFFF2DE9F0478E689E4282460C4606
:1055600090461F4638D88A8912F4906F32D0256849
:105570000969A5EB0109656905EB450505EBD575DD
:1055800001334B446D109D4238BF1D46530531D544
:10559000294600F047FB064650B90C23CAF80030F4
:1055A000A38943F04003A3814FF0FF30BDE8F087AB
:1055B00021694A4600F0BEFAA38923F4906343F0C0
:1055C0008003A381266165614E44A5EB0905266031
:1055D000A5603E46BE4200D93E463246206841465E
:1055E00000F0B6FAA36822689B1B3244A3602260D5
:1055F0000020DBE72A4600F06FFB06460028E1D1D9
:105600002169504600F0BEFAC7E700002DE9F04FCF
:1056100098468B891B069DB007460D4614460ED54D
:105620000B6963B9402100F0FDFA2860286120B9B8
:105630000C233B604FF0FF30D1E040236B6100232F
:10564000099320238DF82930CDF80C803023DFF822
:10565000A8818DF82A304FF0010923469A4613F8A5
:10566000012B0AB1252AF9D1BAEB040B0BD05B460A
:10567000224629463846FFF76DFF013000F0AA8028
:10568000099A5A4409929AF80030002B00F0A2803F
:1056900000234FF0FF32CDE905230AF1010A0493FC
:1056A00007938DF853301A935446052214F8011BC2
:1056B0005148FAF795FD049AD8B9D00644BF202383
:1056C0008DF85330110744BF2B238DF853309AF8CF
:1056D00000302A2B15D0079A544600204FF00A0CB0
:1056E000214611F8013B303B092B4ED9B0B107924E
:1056F00014E0A0EB080309FA03F313430493A24652
:10570000D2E7039B191D1B680391002BBBBF5B42B3
:1057100042F0020207930793B8BF049223782E2B1E
:105720000CD163782A2B35D1039B1A1D1B68039279
:10573000002BB8BF4FF0FF3302340593DFF8C8A049
:10574000217803225046FAF74BFD40B14023A0EBED
:105750000A0003FA00F0049B03430134049314F895
:10576000011B26488DF828100622FAF739FD00287B
:1057700038D0234B1BBB039B073323F007030833AD
:105780000393099B3344099367E70CFB02320C46F1
:105790000120A5E700230134059319464FF00A0CB8
:1057A000204610F8012B303A092A03D9002BC5D026
:1057B0000591C3E70CFB012104460123F0E703AB8D
:1057C00000932A460F4B04A93846AFF30080421CD1
:1057D0000646D6D1AB895B063FF52CAF09981DB0C4
:1057E000BDE8F08F03AB00932A46064B04A9384668
:1057F00000F07AF8EBE700BFD45D0008DE5D00083A
:105800000000000055550008DA5D00082DE9F0475A
:10581000164699468A680B69DDF820809342B8BF26
:105820001346336091F8432007460C460AB1013312
:1058300033602368990642BF3368023333602568BA
:1058400015F0060506D104F1190AE36832689B1ABF
:10585000AB4226DC94F84320131E226818BF0123B4
:1058600092062BD404F1430249463846C047013022
:105870001ED02368E568326803F00603042B08BFD6
:10588000AD1AA36822690CBF25EAE575002593428D
:10589000C4BF9B1AED1800261A34B5421AD1002055
:1058A00008E00123524649463846C047013003D13B
:1058B0004FF0FF30BDE8F0870135C6E7E1185A1C0C
:1058C000302081F84300224494F8451082F84310B8
:1058D0000233C7E70123224649463846C047013014
:1058E000E6D00136D9E700002DE9FF470C46914686
:1058F000277E0C99782F80469A4604F1430207D8F8
:10590000622F0AD8002F00F0D880582F00F0A38013
:1059100004F1420684F842703AE0A7F16303152BC4
:10592000F6D801A050F823F08159000895590008D5
:10593000115900081159000811590008115900089F
:10594000955900081159000811590008115900080B
:1059500011590008A15A0008C5590008835A0008C7
:105960001159000811590008C35A000811590008BC
:10597000C559000811590008115900088B5A000830
:105980000B681A1D1B680A6004F1420684F8423055
:105990000123A3E0256808682E0600F104030AD558
:1059A00005680B60002D03DA2D236D4284F8433027
:1059B0005E480A2319E015F0400F05680B6018BF18
:1059C0002DB2EFE70B682568181D0860280601D581
:1059D0001D6802E06906FBD51D8854486F2F0CBF77
:1059E00008230A23002184F843106668A660002E6D
:1059F000A2BF216821F0040121600DB9002E4DD015
:105A00001646B5FBF3F103FB1157C75D06F8017DA0
:105A10002F46BB420D46F4D9082B0BD12368DF0774
:105A200008D5236961689942DEBF302306F8013C3E
:105A300006F1FF36921B2261CDF800A04B4603AA67
:105A400021464046FFF7E2FE01304CD14FF0FF30D7
:105A500004B0BDE8F087354884F8457023680E68C7
:105A60001F0656F8045B0E6014D5D90744BF43F0F7
:105A7000200323601DB9236823F020032360102333
:105A8000B0E7236843F0200323607823284884F894
:105A90004530E3E75E0648BFADB2E6E71646BBE732
:105AA0000B68266860691D1D0D6035061B6801D5F1
:105AB000186002E07106FBD51880002323611646AA
:105AC000BAE70B681A1D0A601E686268002130463A
:105AD000FAF786FB08B1801B6060636823610023CE
